{
  "address": "0xeFF129BFF662591b0e28cc0d5F80d4db6F51A53A",
  "abi": [
    {
      "inputs": [
        {
          "internalType": "address",
          "name": "admin",
          "type": "address"
        },
        {
          "internalType": "string",
          "name": "name",
          "type": "string"
        },
        {
          "internalType": "string",
          "name": "symbol",
          "type": "string"
        },
        {
          "internalType": "contract IVerifier",
          "name": "verifier",
          "type": "address"
        }
      ],
      "stateMutability": "nonpayable",
      "type": "constructor"
    },
    {
      "anonymous": false,
      "inputs": [
        {
          "indexed": false,
          "internalType": "address",
          "name": "owner",
          "type": "address"
        },
        {
          "indexed": false,
          "internalType": "uint256",
          "name": "tokenId",
          "type": "uint256"
        }
      ],
      "name": "Minted",
      "type": "event"
    },
    {
      "anonymous": false,
      "inputs": [
        {
          "indexed": true,
          "internalType": "address",
          "name": "previousOwner",
          "type": "address"
        },
        {
          "indexed": true,
          "internalType": "address",
          "name": "newOwner",
          "type": "address"
        }
      ],
      "name": "OwnershipTransferred",
      "type": "event"
    },
    {
      "anonymous": false,
      "inputs": [
        {
          "indexed": false,
          "internalType": "address",
          "name": "owner",
          "type": "address"
        },
        {
          "indexed": false,
          "internalType": "uint256",
          "name": "tokenId",
          "type": "uint256"
        }
      ],
      "name": "Revoked",
      "type": "event"
    },
    {
      "inputs": [
        {
          "internalType": "address",
          "name": "owner",
          "type": "address"
        }
      ],
      "name": "balanceOf",
      "outputs": [
        {
          "internalType": "uint256",
          "name": "",
          "type": "uint256"
        }
      ],
      "stateMutability": "view",
      "type": "function"
    },
    {
      "inputs": [],
      "name": "emittedCount",
      "outputs": [
        {
          "internalType": "uint256",
          "name": "",
          "type": "uint256"
        }
      ],
      "stateMutability": "view",
      "type": "function"
    },
    {
      "inputs": [
        {
          "internalType": "uint256",
          "name": "tokenId",
          "type": "uint256"
        }
      ],
      "name": "getEncryptedData",
      "outputs": [
        {
          "internalType": "bytes[]",
          "name": "",
          "type": "bytes[]"
        }
      ],
      "stateMutability": "view",
      "type": "function"
    },
    {
      "inputs": [
        {
          "internalType": "uint256",
          "name": "tokenId",
          "type": "uint256"
        }
      ],
      "name": "getRoot",
      "outputs": [
        {
          "internalType": "bytes",
          "name": "",
          "type": "bytes"
        }
      ],
      "stateMutability": "view",
      "type": "function"
    },
    {
      "inputs": [],
      "name": "getVerifier",
      "outputs": [
        {
          "internalType": "contract IVerifier",
          "name": "",
          "type": "address"
        }
      ],
      "stateMutability": "view",
      "type": "function"
    },
    {
      "inputs": [
        {
          "internalType": "address",
          "name": "owner",
          "type": "address"
        }
      ],
      "name": "hasValid",
      "outputs": [
        {
          "internalType": "bool",
          "name": "",
          "type": "bool"
        }
      ],
      "stateMutability": "view",
      "type": "function"
    },
    {
      "inputs": [],
      "name": "holdersCount",
      "outputs": [
        {
          "internalType": "uint256",
          "name": "",
          "type": "uint256"
        }
      ],
      "stateMutability": "view",
      "type": "function"
    },
    {
      "inputs": [
        {
          "internalType": "uint256",
          "name": "tokenId",
          "type": "uint256"
        }
      ],
      "name": "isValid",
      "outputs": [
        {
          "internalType": "bool",
          "name": "",
          "type": "bool"
        }
      ],
      "stateMutability": "view",
      "type": "function"
    },
    {
      "inputs": [
        {
          "internalType": "address",
          "name": "to",
          "type": "address"
        },
        {
          "internalType": "bytes",
          "name": "root",
          "type": "bytes"
        },
        {
          "internalType": "bytes[]",
          "name": "encryptedData",
          "type": "bytes[]"
        }
      ],
      "name": "mint",
      "outputs": [
        {
          "internalType": "uint256",
          "name": "",
          "type": "uint256"
        }
      ],
      "stateMutability": "payable",
      "type": "function"
    },
    {
      "inputs": [],
      "name": "name",
      "outputs": [
        {
          "internalType": "string",
          "name": "",
          "type": "string"
        }
      ],
      "stateMutability": "view",
      "type": "function"
    },
    {
      "inputs": [],
      "name": "owner",
      "outputs": [
        {
          "internalType": "address",
          "name": "",
          "type": "address"
        }
      ],
      "stateMutability": "view",
      "type": "function"
    },
    {
      "inputs": [
        {
          "internalType": "uint256",
          "name": "tokenId",
          "type": "uint256"
        }
      ],
      "name": "ownerOf",
      "outputs": [
        {
          "internalType": "address",
          "name": "",
          "type": "address"
        }
      ],
      "stateMutability": "view",
      "type": "function"
    },
    {
      "inputs": [],
      "name": "renounceOwnership",
      "outputs": [],
      "stateMutability": "nonpayable",
      "type": "function"
    },
    {
      "inputs": [
        {
          "internalType": "contract IVerifier",
          "name": "verifier",
          "type": "address"
        }
      ],
      "name": "setVerifier",
      "outputs": [],
      "stateMutability": "nonpayable",
      "type": "function"
    },
    {
      "inputs": [
        {
          "internalType": "bytes4",
          "name": "interfaceId",
          "type": "bytes4"
        }
      ],
      "name": "supportsInterface",
      "outputs": [
        {
          "internalType": "bool",
          "name": "",
          "type": "bool"
        }
      ],
      "stateMutability": "view",
      "type": "function"
    },
    {
      "inputs": [],
      "name": "symbol",
      "outputs": [
        {
          "internalType": "string",
          "name": "",
          "type": "string"
        }
      ],
      "stateMutability": "view",
      "type": "function"
    },
    {
      "inputs": [
        {
          "internalType": "uint256",
          "name": "index",
          "type": "uint256"
        }
      ],
      "name": "tokenByIndex",
      "outputs": [
        {
          "internalType": "uint256",
          "name": "",
          "type": "uint256"
        }
      ],
      "stateMutability": "view",
      "type": "function"
    },
    {
      "inputs": [
        {
          "internalType": "address",
          "name": "owner",
          "type": "address"
        },
        {
          "internalType": "uint256",
          "name": "index",
          "type": "uint256"
        }
      ],
      "name": "tokenOfOwnerByIndex",
      "outputs": [
        {
          "internalType": "uint256",
          "name": "",
          "type": "uint256"
        }
      ],
      "stateMutability": "view",
      "type": "function"
    },
    {
      "inputs": [
        {
          "internalType": "uint256",
          "name": "tokenId",
          "type": "uint256"
        }
      ],
      "name": "tokenURI",
      "outputs": [
        {
          "internalType": "string",
          "name": "",
          "type": "string"
        }
      ],
      "stateMutability": "view",
      "type": "function"
    },
    {
      "inputs": [
        {
          "internalType": "address",
          "name": "newOwner",
          "type": "address"
        }
      ],
      "name": "transferOwnership",
      "outputs": [],
      "stateMutability": "nonpayable",
      "type": "function"
    },
    {
      "inputs": [
        {
          "internalType": "uint256",
          "name": "tokenId",
          "type": "uint256"
        },
        {
          "internalType": "uint256[]",
          "name": "proof",
          "type": "uint256[]"
        },
        {
          "internalType": "uint256[]",
          "name": "publicValues",
          "type": "uint256[]"
        }
      ],
      "name": "verifyProof",
      "outputs": [
        {
          "internalType": "bool",
          "name": "",
          "type": "bool"
        }
      ],
      "stateMutability": "view",
      "type": "function"
    }
  ],
  "transactionHash": "0xecf7ee490eea35958201fbe6629a8aaf584b9eeb62debff72a6a65effa810e29",
  "args": [
    "0x46c9cdA3F83C5c13C767A07b6E80aEd302E40B28",
    "ZKP SBT",
    "ZKSBT",
    "0xB5ae2B52a356065364A455cfD27dd3E2e31fFa61"
  ],
  "numDeployments": 3,
  "solcInputHash": "99281f30f5600b4e67ad4b1bec2868ea",
  "bytecode": "0x60806040523480156200001157600080fd5b50604051620024ed380380620024ed833981016040819052620000349162000321565b82826004620000448382620004ed565b506005620000538282620004ed565b5050600880546001600160a01b03191633179055506200007a620000743390565b620000ba565b62000090846200010c60201b62000c0c1760201c565b600a80546001600160a01b0319166001600160a01b03929092169190911790555062000642915050565b600980546001600160a01b038381166001600160a01b0319831681179093556040519116919082907f8be0079c531659141344cd1fd0a4f28419497f9722a3daafe3b4186f6b6457e090600090a35050565b6200011662000156565b6001600160a01b038116620001485760405162461bcd60e51b81526004016200013f90620005bc565b60405180910390fd5b6200015381620000ba565b50565b6009546001600160a01b03163314620001835760405162461bcd60e51b81526004016200013f9062000607565b565b60006001600160a01b0382165b92915050565b620001a38162000185565b81146200015357600080fd5b8051620001928162000198565b601f01601f191690565b634e487b7160e01b600052604160045260246000fd5b620001e782620001bc565b81018181106001600160401b0382111715620002075762000207620001c6565b6040525050565b60006200021a60405190565b9050620002288282620001dc565b919050565b60006001600160401b03821115620002495762000249620001c6565b6200025482620001bc565b60200192915050565b60005b838110156200027a57818101518382015260200162000260565b50506000910152565b60006200029a62000294846200022d565b6200020e565b905082815260208101848484011115620002b757620002b7600080fd5b620002c48482856200025d565b509392505050565b600082601f830112620002e257620002e2600080fd5b8151620002f484826020860162000283565b949350505050565b6000620001928262000185565b620001a381620002fc565b8051620001928162000309565b600080600080608085870312156200033c576200033c600080fd5b60006200034a8787620001af565b94505060208501516001600160401b038111156200036b576200036b600080fd5b6200037987828801620002cc565b93505060408501516001600160401b038111156200039a576200039a600080fd5b620003a887828801620002cc565b9250506060620003bb8782880162000314565b91505092959194509250565b634e487b7160e01b600052602260045260246000fd5b600281046001821680620003f257607f821691505b602082108103620004075762000407620003c7565b50919050565b6000620001926200041b8381565b90565b62000429836200040d565b815460001960089490940293841b1916921b91909117905550565b6000620004538184846200041e565b505050565b8181101562000477576200046e60008262000444565b60010162000458565b5050565b601f82111562000453576000818152602090206020601f85010481016020851015620004a45750805b620004b86020601f86010483018262000458565b5050505050565b6000196008929092029190911c191690565b6000620004df8383620004bf565b600290930290921792915050565b81516001600160401b03811115620005095762000509620001c6565b620005158254620003dd565b620005228282856200047b565b6020601f831160018114620005555760008415620005405750858201515b6200054c8582620004d1565b865550620005b4565b600085815260208120601f198616915b8281101562000587578885015182556020948501946001909201910162000565565b86831015620005a75784890151620005a3601f891682620004bf565b8355505b6001600288020188555050505b505050505050565b602080825281016200019281602681527f4f776e61626c653a206e6577206f776e657220697320746865207a65726f206160208201526564647265737360d01b604082015260600190565b60208082528181019081527f4f776e61626c653a2063616c6c6572206973206e6f7420746865206f776e657260408301526060820162000192565b611e9b80620006526000396000f3fe6080604052600436106100fa5760003560e01c806301ffc9a7146100ff57806306fdde031461013557806326019c181461015757806329f325f7146101755780632f745c59146101885780633ec0b0bc146101a857806343945512146101d557806346657fe91461020d5780634f6ccce7146102335780635437988d146102515780636352211e146102735780636b4ed21b146102a057806370a08231146102b5578063715018a6146102eb5780638da5cb5b1461030057806395d89b4114610315578063980833ec1461032a5780639b24b3b01461034a578063c87b56dd1461036a578063f2fde38b1461038a578063f577a500146103aa575b600080fd5b34801561010b57600080fd5b5061011f61011a36600461111b565b6103ca565b60405161012c919061114e565b60405180910390f35b34801561014157600080fd5b5061014a610437565b60405161012c91906111be565b34801561016357600080fd5b506006545b60405161012c91906111d5565b6101686101833660046112a9565b6104c9565b34801561019457600080fd5b506101686101a3366004611348565b610568565b3480156101b457600080fd5b506101c86101c3366004611385565b6105cf565b60405161012c9190611418565b3480156101e157600080fd5b5061011f6101f0366004611429565b6001600160a01b0316600090815260036020526040902054151590565b34801561021957600080fd5b50600a546001600160a01b031660405161012c919061147f565b34801561023f57600080fd5b5061016861024e366004611385565b90565b34801561025d57600080fd5b5061027161026c3660046114ac565b6106be565b005b34801561027f57600080fd5b5061029361028e366004611385565b6106e8565b60405161012c91906114d6565b3480156102ac57600080fd5b50600754610168565b3480156102c157600080fd5b506101686102d0366004611429565b6001600160a01b031660009081526001602052604090205490565b3480156102f757600080fd5b50610271610706565b34801561030c57600080fd5b5061029361071a565b34801561032157600080fd5b5061014a610729565b34801561033657600080fd5b5061011f6103453660046115ea565b610738565b34801561035657600080fd5b5061014a610365366004611385565b610af3565b34801561037657600080fd5b5061014a610385366004611385565b610b95565b34801561039657600080fd5b506102716103a5366004611429565b610c0c565b3480156103b657600080fd5b5061011f6103c5366004611385565b610c46565b60006001600160e01b0319821663a511533d60e01b14806103fb57506001600160e01b03198216635b5e139f60e01b145b8061041657506001600160e01b03198216632d57debd60e01b145b8061043157506301ffc9a760e01b6001600160e01b03198316145b92915050565b60606004805461044690611684565b80601f016020809104026020016040519081016040528092919081815260200182805461047290611684565b80156104bf5780601f10610494576101008083540402835291602001916104bf565b820191906000526020600020905b8154815290600101906020018083116104a257829003601f168201915b5050505050905090565b6000806104d587610c65565b6040805160606020601f8a0181900402820181018352918101888152929350918291899089908190850183828082843760009201919091525050509082525060200161052185876117b4565b90526000828152600b602052604090208151819061053f9082611889565b506020828101518051610558926001850192019061103c565b5091925050505b95945050505050565b6001600160a01b0382166000908152600160205260408120805483106105a95760405162461bcd60e51b81526004016105a090611975565b60405180910390fd5b8083815481106105bb576105bb611985565b906000526020600020015491505092915050565b6060600b6000838152602001908152602001600020600101805480602002602001604051908101604052809291908181526020016000905b828210156106b357838290600052602060002001805461062690611684565b80601f016020809104026020016040519081016040528092919081815260200182805461065290611684565b801561069f5780601f106106745761010080835404028352916020019161069f565b820191906000526020600020905b81548152906001019060200180831161068257829003601f168201915b505050505081526020019060010190610607565b505050509050919050565b6106c6610ccb565b600a80546001600160a01b0319166001600160a01b0392909216919091179055565b60006106f382610cfa565b600101546001600160a01b031692915050565b61070e610ccb565b6107186000610d32565b565b6009546001600160a01b031690565b60606005805461044690611684565b6000808260028151811061074e5761074e611985565b602002602001015190508260008151811061076b5761076b611985565b60200260200101516001146107925760405162461bcd60e51b81526004016105a0906119e8565b806001600160a01b03166107a5866106e8565b6001600160a01b0316146107cb5760405162461bcd60e51b81526004016105a090611a64565b60006107d686610af3565b9050836001815181106107eb576107eb611985565b60200260200101516040516020016108039190611a74565b604051602081830303815290604052805190602001208160405160200161082a9190611aab565b604051602081830303815290604052805190602001201461085d5760405162461bcd60e51b81526004016105a090611b25565b600060405180604001604052808760008151811061087d5761087d611985565b602002602001015181526020018760018151811061089d5761089d611985565b602002602001015181525090506000604051806040016040528060405180604001604052808a6002815181106108d5576108d5611985565b602002602001015181526020018a6003815181106108f5576108f5611985565b6020026020010151815250815260200160405180604001604052808a60048151811061092357610923611985565b602002602001015181526020018a60058151811061094357610943611985565b60200260200101518152508152509050600060405180604001604052808960068151811061097357610973611985565b602002602001015181526020018960078151811061099357610993611985565b6020026020010151815250905060006040518060a00160405280896000815181106109c0576109c0611985565b60200260200101518152602001896001815181106109e0576109e0611985565b6020026020010151815260200189600281518110610a0057610a00611985565b6020026020010151815260200189600381518110610a2057610a20611985565b6020026020010151815260200189600481518110610a4057610a40611985565b60209081029190910101519052600a546040516334baeab960e01b81529192506001600160a01b0316906334baeab990610a84908790879087908790600401611c0d565b602060405180830381865afa158015610aa1573d6000803e3d6000fd5b505050506040513d601f19601f82011682018060405250810190610ac59190611c57565b610ae15760405162461bcd60e51b81526004016105a090611ca8565b600196505050505050505b9392505050565b6000818152600b60205260409020805460609190610b1090611684565b80601f0160208091040260200160405190810160405280929190818152602001828054610b3c90611684565b8015610b895780601f10610b5e57610100808354040283529160200191610b89565b820191906000526020600020905b815481529060010190602001808311610b6c57829003601f168201915b50505050509050919050565b6060610ba082610cfa565b506000610bb860408051602081019091526000815290565b805190915015610bf65780610bce846020610d84565b604051602001610bdf929190611cb8565b604051602081830303815290604052915050919050565b5050604080516020810190915260008152919050565b610c14610ccb565b6001600160a01b038116610c3a5760405162461bcd60e51b81526004016105a090611d13565b610c4381610d32565b50565b6000610c5182610cfa565b60010154600160a01b900460ff1692915050565b600654610c7482826001610eef565b7f30385c845b448a36257a6a1716e6ad2e1bc2cbe333cde1e69fe849ad6511adfe8282604051610ca5929190611d23565b60405180910390a1600160066000828254610cc09190611d54565b909155509092915050565b33610cd461071a565b6001600160a01b0316146107185760405162461bcd60e51b81526004016105a090611d99565b600081815260208190526040812060018101546001600160a01b03166104315760405162461bcd60e51b81526004016105a090611975565b600980546001600160a01b038381166001600160a01b0319831681179093556040519116919082907f8be0079c531659141344cd1fd0a4f28419497f9722a3daafe3b4186f6b6457e090600090a35050565b60606000610d93836002611da9565b610d9e906002611d54565b6001600160401b03811115610db557610db56114e4565b6040519080825280601f01601f191660200182016040528015610ddf576020820181803683370190505b509050600360fc1b81600081518110610dfa57610dfa611985565b60200101906001600160f81b031916908160001a905350600f60fb1b81600181518110610e2957610e29611985565b60200101906001600160f81b031916908160001a9053506000610e4d846002611da9565b610e58906001611d54565b90505b6001811115610ed0576f181899199a1a9b1b9c1cb0b131b232b360811b85600f1660108110610e8c57610e8c611985565b1a60f81b828281518110610ea257610ea2611985565b60200101906001600160f81b031916908160001a90535060049490941c93610ec981611dc8565b9050610e5b565b508315610aec5760405162461bcd60e51b81526004016105a090611e11565b6000828152602081905260409020600101546001600160a01b031615610f275760405162461bcd60e51b81526004016105a090611e55565b6001600160a01b0383166000908152600160205260408120549003610f5f57600160076000828254610f599190611d54565b90915550505b604080516060810182523381526001600160a01b0385811660208084018281528615801586880190815260008a8152808552888120975188549088166001600160a01b031990911617885592516001978801805492511515600160a01b026001600160a81b03199093169190971617179094559182528381528482208054600283528684208985528352958320869055848252938501845592815291909120909101839055611037576001600160a01b0383166000908152600360205260408120805460019290611031908490611d54565b90915550505b505050565b828054828255906000526020600020908101928215611082579160200282015b8281111561108257825182906110729082611889565b509160200191906001019061105c565b5061108e929150611092565b5090565b8082111561108e5760006110a682826110af565b50600101611092565b5080546110bb90611684565b6000825580601f106110cb575050565b601f016020900490600052602060002090810190610c4391905b8082111561108e57600081556001016110e5565b6001600160e01b031981165b8114610c4357600080fd5b8035610431816110f9565b60006020828403121561113057611130600080fd5b600061113c8484611110565b949350505050565b8015155b82525050565b602081016104318284611144565b60005b8381101561117757818101518382015260200161115f565b50506000910152565b601f01601f191690565b6000611194825190565b8084526020840193506111ab81856020860161115c565b6111b481611180565b9093019392505050565b60208082528101610aec818461118a565b80611148565b6020810161043182846111cf565b6001600160a01b031690565b6000610431826111e3565b611105816111ef565b8035610431816111fa565b60008083601f84011261122357611223600080fd5b5081356001600160401b0381111561123d5761123d600080fd5b60208301915083600182028301111561125857611258600080fd5b9250929050565b60008083601f84011261127457611274600080fd5b5081356001600160401b0381111561128e5761128e600080fd5b60208301915083602082028301111561125857611258600080fd5b6000806000806000606086880312156112c4576112c4600080fd5b60006112d08888611203565b95505060208601356001600160401b038111156112ef576112ef600080fd5b6112fb8882890161120e565b945094505060408601356001600160401b0381111561131c5761131c600080fd5b6113288882890161125f565b92509250509295509295909350565b80611105565b803561043181611337565b6000806040838503121561135e5761135e600080fd5b600061136a8585611203565b925050602061137b8582860161133d565b9150509250929050565b60006020828403121561139a5761139a600080fd5b600061113c848461133d565b6000610aec838361118a565b60006113bc825190565b808452602084019350836020820285016113d68560200190565b8060005b8581101561140b57848403895281516113f385826113a6565b94506020830160209a909a01999250506001016113da565b5091979650505050505050565b60208082528101610aec81846113b2565b60006020828403121561143e5761143e600080fd5b600061113c8484611203565b600061043161145b61024e846111e3565b6111e3565b60006104318261144a565b600061043182611460565b6111488161146b565b602081016104318284611476565b6000610431826111ef565b6111058161148d565b803561043181611498565b6000602082840312156114c1576114c1600080fd5b600061113c84846114a1565b611148816111ef565b6020810161043182846114cd565b634e487b7160e01b600052604160045260246000fd5b61150382611180565b81018181106001600160401b0382111715611520576115206114e4565b6040525050565b600061153260405190565b905061153e82826114fa565b919050565b60006001600160401b0382111561155c5761155c6114e4565b5060209081020190565b600061157961157484611543565b611527565b8381529050602080820190840283018581111561159857611598600080fd5b835b818110156115bc57806115ad888261133d565b8452506020928301920161159a565b5050509392505050565b600082601f8301126115da576115da600080fd5b813561113c848260208601611566565b60008060006060848603121561160257611602600080fd5b600061160e868661133d565b93505060208401356001600160401b0381111561162d5761162d600080fd5b611639868287016115c6565b92505060408401356001600160401b0381111561165857611658600080fd5b611664868287016115c6565b9150509250925092565b634e487b7160e01b600052602260045260246000fd5b60028104600182168061169857607f821691505b6020821081036116aa576116aa61166e565b50919050565b60006001600160401b038211156116c9576116c96114e4565b6116d282611180565b60200192915050565b82818337506000910152565b60006116f5611574846116b0565b90508281526020810184848401111561171057611710600080fd5b61171b8482856116db565b509392505050565b600082601f83011261173757611737600080fd5b813561113c8482602086016116e7565b600061175561157484611543565b8381529050602080820190840283018581111561177457611774600080fd5b835b818110156115bc5780356001600160401b0381111561179757611797600080fd5b8086016117a48982611723565b8552505060209283019201611776565b6000610aec368484611747565b600061043161024e8381565b6117d6836117c1565b815460001960089490940293841b1916921b91909117905550565b60006110378184846117cd565b81811015611819576118116000826117f1565b6001016117fe565b5050565b601f821115611037576000818152602090206020601f850104810160208510156118445750805b6118566020601f8601048301826117fe565b5050505050565b6000196008929092029190911c191690565b600061187b838361185d565b600290930290921792915050565b81516001600160401b038111156118a2576118a26114e4565b6118ac8254611684565b6118b782828561181d565b6020601f8311600181146118e557600084156118d35750858201515b6118dd858261186f565b86555061193f565b600085815260208120601f198616915b8281101561191557888501518255602094850194600190920191016118f5565b86831015611932578489015161192e601f89168261185d565b8355505b6001600288020188555050505b505050505050565b6014815260006020820173151bdad95b88191bd95cc81b9bdd08195e1a5cdd60621b815291505b5060200190565b6020808252810161043181611947565b634e487b7160e01b600052603260045260246000fd5b602d81526000602082017f54686520636c61696d20646f65736e277420736174697366792074686520717581526c32b93c9031b7b73234ba34b7b760991b602082015291505b5060400190565b602080825281016104318161199b565b604681526000602082017f5468652053425420646f65736e27742062656c6f6e6720746f2074686520616481527f6472657373207468617420697320747279696e6720746f20636c61696d20746860208201526532903637b0b760d11b604082015291505b5060600190565b60208082528101610431816119f8565b6000611a8082846111cf565b50602001919050565b6000611a93825190565b611aa181856020860161115c565b9290920192915050565b6000610aec8284611a89565b604b81526000602082017f54686520726f6f74206f6620746865204d65726b6c652054726565277320646181527f746120646f65736e2774206d617463682074686520726f6f742073746f72656460208201526a081a5b881d1a194814d09560aa1b60408201529150611a5d565b6020808252810161043181611ab7565b6000611b4183836111cf565b505060200190565b6002818060005b8381101561193f578151611b648782611b35565b965060208301925050600101611b50565b6002818060005b8381101561193f578151611b908782611b35565b965060208301925050600101611b7c565b6000611bad8383611b75565b505060400190565b6002818060005b8381101561193f578151611bd08782611ba1565b965060208301925050600101611bbc565b6005818060005b8381101561193f578151611bfc8782611b35565b965060208301925050600101611be8565b6101a08101611c1c8287611b49565b611c296040830186611bb5565b611c3660c0830185611b49565b61055f610100830184611be1565b801515611105565b805161043181611c44565b600060208284031215611c6c57611c6c600080fd5b600061113c8484611c4c565b6019815260006020820178141c9bdbd9881d995c9a599a58d85d1a5bdb8819985a5b1959603a1b8152915061196e565b6020808252810161043181611c78565b6000611cc48285611a89565b915061113c8284611a89565b602681526000602082017f4f776e61626c653a206e6577206f776e657220697320746865207a65726f206181526564647265737360d01b602082015291506119e1565b6020808252810161043181611cd0565b60408101611d3182856114cd565b610aec60208301846111cf565b634e487b7160e01b600052601160045260246000fd5b8082018082111561043157610431611d3e565b60208082527f4f776e61626c653a2063616c6c6572206973206e6f7420746865206f776e65729101908152600061196e565b6020808252810161043181611d67565b818102808215838204851417611dc157611dc1611d3e565b5092915050565b600081611dd757611dd7611d3e565b506000190190565b60208082527f537472696e67733a20686578206c656e67746820696e73756666696369656e749101908152600061196e565b6020808252810161043181611ddf565b601d81526000602082017f43616e6e6f74206d696e7420616e2061737369676e656420746f6b656e0000008152915061196e565b6020808252810161043181611e2156fea264697066735822122090b8dc3251169090405eea6aff2b39e3268629688ca95026057666b2cc77680f64736f6c63430008120033",
  "devdoc": {
    "author": "Miquel A. Cabot",
    "details": "Inherits from the SSBT contract",
    "kind": "dev",
    "methods": {
      "balanceOf(address)": {
        "params": {
          "owner": "Address for whom to query the balance"
        },
        "returns": {
          "_0": "Number of tokens owned by `owner`"
        }
      },
      "constructor": {
        "details": "Creates a new ZKP SBT, inheriting from the SBT contract.",
        "params": {
          "admin": "Administrator of the smart contract",
          "name": "Name of the token",
          "symbol": "Symbol of the token",
          "verifier": "Verifier smart contract"
        }
      },
      "emittedCount()": {
        "returns": {
          "_0": "emittedCount Number of tokens emitted"
        }
      },
      "getEncryptedData(uint256)": {
        "params": {
          "tokenId": "The SBT ID"
        },
        "returns": {
          "_0": "The encrypted data with the public key of the owner of the SBT"
        }
      },
      "getRoot(uint256)": {
        "params": {
          "tokenId": "The SBT ID"
        },
        "returns": {
          "_0": "The root of the Merkle Tree's data without encryption, used to verify the data"
        }
      },
      "getVerifier()": {
        "returns": {
          "_0": "The verifier smart contract"
        }
      },
      "hasValid(address)": {
        "params": {
          "owner": "Address for whom to check the ownership"
        },
        "returns": {
          "_0": "True if `owner` has a valid token, false otherwise"
        }
      },
      "holdersCount()": {
        "returns": {
          "_0": "holdersCount Number of token holders"
        }
      },
      "isValid(uint256)": {
        "params": {
          "tokenId": "Identifier of the token"
        },
        "returns": {
          "_0": "True if the token is valid, false otherwise"
        }
      },
      "mint(address,bytes,bytes[])": {
        "details": "The caller must have the MINTER role",
        "params": {
          "encryptedData": "Encrypted data",
          "root": "Root of the Merkle Tree's data without encryption, used to verify the data",
          "to": "The address to mint the SBT to"
        },
        "returns": {
          "_0": "The SBT ID of the newly minted SBT"
        }
      },
      "name()": {
        "returns": {
          "_0": "Descriptive name of the tokens in this contract"
        }
      },
      "owner()": {
        "details": "Returns the address of the current owner."
      },
      "ownerOf(uint256)": {
        "params": {
          "tokenId": "Identifier of the token"
        },
        "returns": {
          "_0": "Address of the owner of `tokenId`"
        }
      },
      "renounceOwnership()": {
        "details": "Leaves the contract without owner. It will not be possible to call `onlyOwner` functions. Can only be called by the current owner. NOTE: Renouncing ownership will leave the contract without an owner, thereby disabling any functionality that is only available to the owner."
      },
      "setVerifier(address)": {
        "details": "The caller must have the OWNER role",
        "params": {
          "verifier": "Verifier smart contract"
        }
      },
      "symbol()": {
        "returns": {
          "_0": "An abbreviated name of the tokens in this contract"
        }
      },
      "tokenByIndex(uint256)": {
        "params": {
          "index": "Index of the token"
        },
        "returns": {
          "_0": "tokenId of the token"
        }
      },
      "tokenOfOwnerByIndex(address,uint256)": {
        "params": {
          "index": "Index of the token",
          "owner": "Address for whom to get the token"
        },
        "returns": {
          "_0": "tokenId of the token"
        }
      },
      "tokenURI(uint256)": {
        "params": {
          "tokenId": "Identifier of the token"
        },
        "returns": {
          "_0": "URI for the token"
        }
      },
      "transferOwnership(address)": {
        "details": "Transfers ownership of the contract to a new account (`newOwner`). Can only be called by the current owner."
      }
    },
    "title": "ZKP SBT",
    "version": 1
  },
  "userdoc": {
    "events": {
      "Minted(address,uint256)": {
        "notice": "Event emitted when a token `tokenId` is minted for `owner`"
      },
      "Revoked(address,uint256)": {
        "notice": "Event emitted when token `tokenId` of `owner` is revoked"
      }
    },
    "kind": "user",
    "methods": {
      "balanceOf(address)": {
        "notice": "Count all tokens assigned to an owner"
      },
      "constructor": {
        "notice": "Creates a new ZKP SBT"
      },
      "getEncryptedData(uint256)": {
        "notice": "Returns the encrypted data with the public key of the owner of the SBT"
      },
      "getRoot(uint256)": {
        "notice": "Returns the root of the Merkle Tree's data without encryption, used to verify the data"
      },
      "getVerifier()": {
        "notice": "Returns the verifier smart contract"
      },
      "hasValid(address)": {
        "notice": "Check if an address owns a valid token in the contract"
      },
      "isValid(uint256)": {
        "notice": "Check if a token hasn't been revoked"
      },
      "mint(address,bytes,bytes[])": {
        "notice": "Mints a new SBT"
      },
      "ownerOf(uint256)": {
        "notice": "Get owner of a token"
      },
      "setVerifier(address)": {
        "notice": "Sets the verifier smart contract"
      },
      "tokenByIndex(uint256)": {
        "notice": "Get a tokenId by it's index, where 0 <= index < total()"
      },
      "tokenOfOwnerByIndex(address,uint256)": {
        "notice": "Get the tokenId of a token using its position in the owner's list"
      },
      "tokenURI(uint256)": {
        "notice": "URI to query to get the token's metadata"
      }
    },
    "notice": "Soulbound token implementing ZKP",
    "version": 1
  },
  "storageLayout": {
    "storage": [
      {
        "astId": 1764,
        "contract": "contracts/ZKSBT.sol:ZKSBT",
        "label": "_tokens",
        "offset": 0,
        "slot": "0",
        "type": "t_mapping(t_uint256,t_struct(Token)1759_storage)"
      },
      {
        "astId": 1769,
        "contract": "contracts/ZKSBT.sol:ZKSBT",
        "label": "_indexedTokenIds",
        "offset": 0,
        "slot": "1",
        "type": "t_mapping(t_address,t_array(t_uint256)dyn_storage)"
      },
      {
        "astId": 1775,
        "contract": "contracts/ZKSBT.sol:ZKSBT",
        "label": "_tokenIdIndex",
        "offset": 0,
        "slot": "2",
        "type": "t_mapping(t_address,t_mapping(t_uint256,t_uint256))"
      },
      {
        "astId": 1779,
        "contract": "contracts/ZKSBT.sol:ZKSBT",
        "label": "_numberOfValidTokens",
        "offset": 0,
        "slot": "3",
        "type": "t_mapping(t_address,t_uint256)"
      },
      {
        "astId": 1781,
        "contract": "contracts/ZKSBT.sol:ZKSBT",
        "label": "_name",
        "offset": 0,
        "slot": "4",
        "type": "t_string_storage"
      },
      {
        "astId": 1783,
        "contract": "contracts/ZKSBT.sol:ZKSBT",
        "label": "_symbol",
        "offset": 0,
        "slot": "5",
        "type": "t_string_storage"
      },
      {
        "astId": 1785,
        "contract": "contracts/ZKSBT.sol:ZKSBT",
        "label": "_emittedCount",
        "offset": 0,
        "slot": "6",
        "type": "t_uint256"
      },
      {
        "astId": 1787,
        "contract": "contracts/ZKSBT.sol:ZKSBT",
        "label": "_holdersCount",
        "offset": 0,
        "slot": "7",
        "type": "t_uint256"
      },
      {
        "astId": 1789,
        "contract": "contracts/ZKSBT.sol:ZKSBT",
        "label": "_creator",
        "offset": 0,
        "slot": "8",
        "type": "t_address"
      },
      {
        "astId": 7,
        "contract": "contracts/ZKSBT.sol:ZKSBT",
        "label": "_owner",
        "offset": 0,
        "slot": "9",
        "type": "t_address"
      },
      {
        "astId": 1452,
        "contract": "contracts/ZKSBT.sol:ZKSBT",
        "label": "_verifier",
        "offset": 0,
        "slot": "10",
        "type": "t_contract(IVerifier)1442"
      },
      {
        "astId": 1463,
        "contract": "contracts/ZKSBT.sol:ZKSBT",
        "label": "sbtData",
        "offset": 0,
        "slot": "11",
        "type": "t_mapping(t_uint256,t_struct(SBTData)1458_storage)"
      }
    ],
    "types": {
      "t_address": {
        "encoding": "inplace",
        "label": "address",
        "numberOfBytes": "20"
      },
      "t_array(t_bytes_storage)dyn_storage": {
        "base": "t_bytes_storage",
        "encoding": "dynamic_array",
        "label": "bytes[]",
        "numberOfBytes": "32"
      },
      "t_array(t_uint256)dyn_storage": {
        "base": "t_uint256",
        "encoding": "dynamic_array",
        "label": "uint256[]",
        "numberOfBytes": "32"
      },
      "t_bool": {
        "encoding": "inplace",
        "label": "bool",
        "numberOfBytes": "1"
      },
      "t_bytes_storage": {
        "encoding": "bytes",
        "label": "bytes",
        "numberOfBytes": "32"
      },
      "t_contract(IVerifier)1442": {
        "encoding": "inplace",
        "label": "contract IVerifier",
        "numberOfBytes": "20"
      },
      "t_mapping(t_address,t_array(t_uint256)dyn_storage)": {
        "encoding": "mapping",
        "key": "t_address",
        "label": "mapping(address => uint256[])",
        "numberOfBytes": "32",
        "value": "t_array(t_uint256)dyn_storage"
      },
      "t_mapping(t_address,t_mapping(t_uint256,t_uint256))": {
        "encoding": "mapping",
        "key": "t_address",
        "label": "mapping(address => mapping(uint256 => uint256))",
        "numberOfBytes": "32",
        "value": "t_mapping(t_uint256,t_uint256)"
      },
      "t_mapping(t_address,t_uint256)": {
        "encoding": "mapping",
        "key": "t_address",
        "label": "mapping(address => uint256)",
        "numberOfBytes": "32",
        "value": "t_uint256"
      },
      "t_mapping(t_uint256,t_struct(SBTData)1458_storage)": {
        "encoding": "mapping",
        "key": "t_uint256",
        "label": "mapping(uint256 => struct ZKSBT.SBTData)",
        "numberOfBytes": "32",
        "value": "t_struct(SBTData)1458_storage"
      },
      "t_mapping(t_uint256,t_struct(Token)1759_storage)": {
        "encoding": "mapping",
        "key": "t_uint256",
        "label": "mapping(uint256 => struct ERC4671.Token)",
        "numberOfBytes": "32",
        "value": "t_struct(Token)1759_storage"
      },
      "t_mapping(t_uint256,t_uint256)": {
        "encoding": "mapping",
        "key": "t_uint256",
        "label": "mapping(uint256 => uint256)",
        "numberOfBytes": "32",
        "value": "t_uint256"
      },
      "t_string_storage": {
        "encoding": "bytes",
        "label": "string",
        "numberOfBytes": "32"
      },
      "t_struct(SBTData)1458_storage": {
        "encoding": "inplace",
        "label": "struct ZKSBT.SBTData",
        "members": [
          {
            "astId": 1454,
            "contract": "contracts/ZKSBT.sol:ZKSBT",
            "label": "root",
            "offset": 0,
            "slot": "0",
            "type": "t_bytes_storage"
          },
          {
            "astId": 1457,
            "contract": "contracts/ZKSBT.sol:ZKSBT",
            "label": "encryptedData",
            "offset": 0,
            "slot": "1",
            "type": "t_array(t_bytes_storage)dyn_storage"
          }
        ],
        "numberOfBytes": "64"
      },
      "t_struct(Token)1759_storage": {
        "encoding": "inplace",
        "label": "struct ERC4671.Token",
        "members": [
          {
            "astId": 1754,
            "contract": "contracts/ZKSBT.sol:ZKSBT",
            "label": "issuer",
            "offset": 0,
            "slot": "0",
            "type": "t_address"
          },
          {
            "astId": 1756,
            "contract": "contracts/ZKSBT.sol:ZKSBT",
            "label": "owner",
            "offset": 0,
            "slot": "1",
            "type": "t_address"
          },
          {
            "astId": 1758,
            "contract": "contracts/ZKSBT.sol:ZKSBT",
            "label": "valid",
            "offset": 20,
            "slot": "1",
            "type": "t_bool"
          }
        ],
        "numberOfBytes": "64"
      },
      "t_uint256": {
        "encoding": "inplace",
        "label": "uint256",
        "numberOfBytes": "32"
      }
    }
  }
}