{
  "address": "0xddD584ac4487ea3519a8Eb9877bF628Acce8653e",
  "abi": [
    {
      "inputs": [
        {
          "internalType": "address",
          "name": "admin",
          "type": "address"
        },
        {
          "internalType": "string",
          "name": "name",
          "type": "string"
        },
        {
          "internalType": "string",
          "name": "symbol",
          "type": "string"
        }
      ],
      "stateMutability": "nonpayable",
      "type": "constructor"
    },
    {
      "anonymous": false,
      "inputs": [
        {
          "indexed": false,
          "internalType": "address",
          "name": "owner",
          "type": "address"
        },
        {
          "indexed": false,
          "internalType": "uint256",
          "name": "tokenId",
          "type": "uint256"
        }
      ],
      "name": "Minted",
      "type": "event"
    },
    {
      "anonymous": false,
      "inputs": [
        {
          "indexed": true,
          "internalType": "address",
          "name": "previousOwner",
          "type": "address"
        },
        {
          "indexed": true,
          "internalType": "address",
          "name": "newOwner",
          "type": "address"
        }
      ],
      "name": "OwnershipTransferred",
      "type": "event"
    },
    {
      "anonymous": false,
      "inputs": [
        {
          "indexed": false,
          "internalType": "address",
          "name": "owner",
          "type": "address"
        },
        {
          "indexed": false,
          "internalType": "uint256",
          "name": "tokenId",
          "type": "uint256"
        }
      ],
      "name": "Revoked",
      "type": "event"
    },
    {
      "inputs": [
        {
          "internalType": "address",
          "name": "owner",
          "type": "address"
        }
      ],
      "name": "balanceOf",
      "outputs": [
        {
          "internalType": "uint256",
          "name": "",
          "type": "uint256"
        }
      ],
      "stateMutability": "view",
      "type": "function"
    },
    {
      "inputs": [],
      "name": "emittedCount",
      "outputs": [
        {
          "internalType": "uint256",
          "name": "",
          "type": "uint256"
        }
      ],
      "stateMutability": "view",
      "type": "function"
    },
    {
      "inputs": [
        {
          "internalType": "uint256",
          "name": "tokenId",
          "type": "uint256"
        }
      ],
      "name": "getEncryptedData",
      "outputs": [
        {
          "components": [
            {
              "internalType": "bytes",
              "name": "iv",
              "type": "bytes"
            },
            {
              "internalType": "bytes",
              "name": "ephemPublicKey",
              "type": "bytes"
            },
            {
              "internalType": "bytes",
              "name": "cipherText",
              "type": "bytes"
            },
            {
              "internalType": "bytes",
              "name": "mac",
              "type": "bytes"
            }
          ],
          "internalType": "struct ZKPSBT.EncryptedData",
          "name": "",
          "type": "tuple"
        },
        {
          "components": [
            {
              "internalType": "bytes",
              "name": "iv",
              "type": "bytes"
            },
            {
              "internalType": "bytes",
              "name": "ephemPublicKey",
              "type": "bytes"
            },
            {
              "internalType": "bytes",
              "name": "cipherText",
              "type": "bytes"
            },
            {
              "internalType": "bytes",
              "name": "mac",
              "type": "bytes"
            }
          ],
          "internalType": "struct ZKPSBT.EncryptedData",
          "name": "",
          "type": "tuple"
        },
        {
          "components": [
            {
              "internalType": "bytes",
              "name": "iv",
              "type": "bytes"
            },
            {
              "internalType": "bytes",
              "name": "ephemPublicKey",
              "type": "bytes"
            },
            {
              "internalType": "bytes",
              "name": "cipherText",
              "type": "bytes"
            },
            {
              "internalType": "bytes",
              "name": "mac",
              "type": "bytes"
            }
          ],
          "internalType": "struct ZKPSBT.EncryptedData",
          "name": "",
          "type": "tuple"
        }
      ],
      "stateMutability": "view",
      "type": "function"
    },
    {
      "inputs": [
        {
          "internalType": "uint256",
          "name": "tokenId",
          "type": "uint256"
        }
      ],
      "name": "getHashData",
      "outputs": [
        {
          "internalType": "bytes",
          "name": "",
          "type": "bytes"
        }
      ],
      "stateMutability": "view",
      "type": "function"
    },
    {
      "inputs": [
        {
          "internalType": "address",
          "name": "owner",
          "type": "address"
        }
      ],
      "name": "hasValid",
      "outputs": [
        {
          "internalType": "bool",
          "name": "",
          "type": "bool"
        }
      ],
      "stateMutability": "view",
      "type": "function"
    },
    {
      "inputs": [],
      "name": "holdersCount",
      "outputs": [
        {
          "internalType": "uint256",
          "name": "",
          "type": "uint256"
        }
      ],
      "stateMutability": "view",
      "type": "function"
    },
    {
      "inputs": [
        {
          "internalType": "uint256",
          "name": "tokenId",
          "type": "uint256"
        }
      ],
      "name": "isValid",
      "outputs": [
        {
          "internalType": "bool",
          "name": "",
          "type": "bool"
        }
      ],
      "stateMutability": "view",
      "type": "function"
    },
    {
      "inputs": [
        {
          "internalType": "address",
          "name": "to",
          "type": "address"
        },
        {
          "internalType": "bytes",
          "name": "hashData",
          "type": "bytes"
        },
        {
          "components": [
            {
              "internalType": "bytes",
              "name": "iv",
              "type": "bytes"
            },
            {
              "internalType": "bytes",
              "name": "ephemPublicKey",
              "type": "bytes"
            },
            {
              "internalType": "bytes",
              "name": "cipherText",
              "type": "bytes"
            },
            {
              "internalType": "bytes",
              "name": "mac",
              "type": "bytes"
            }
          ],
          "internalType": "struct ZKPSBT.EncryptedData",
          "name": "encryptedCreditScore",
          "type": "tuple"
        },
        {
          "components": [
            {
              "internalType": "bytes",
              "name": "iv",
              "type": "bytes"
            },
            {
              "internalType": "bytes",
              "name": "ephemPublicKey",
              "type": "bytes"
            },
            {
              "internalType": "bytes",
              "name": "cipherText",
              "type": "bytes"
            },
            {
              "internalType": "bytes",
              "name": "mac",
              "type": "bytes"
            }
          ],
          "internalType": "struct ZKPSBT.EncryptedData",
          "name": "encryptedIncome",
          "type": "tuple"
        },
        {
          "components": [
            {
              "internalType": "bytes",
              "name": "iv",
              "type": "bytes"
            },
            {
              "internalType": "bytes",
              "name": "ephemPublicKey",
              "type": "bytes"
            },
            {
              "internalType": "bytes",
              "name": "cipherText",
              "type": "bytes"
            },
            {
              "internalType": "bytes",
              "name": "mac",
              "type": "bytes"
            }
          ],
          "internalType": "struct ZKPSBT.EncryptedData",
          "name": "encryptedReportDate",
          "type": "tuple"
        }
      ],
      "name": "mint",
      "outputs": [
        {
          "internalType": "uint256",
          "name": "",
          "type": "uint256"
        }
      ],
      "stateMutability": "payable",
      "type": "function"
    },
    {
      "inputs": [],
      "name": "name",
      "outputs": [
        {
          "internalType": "string",
          "name": "",
          "type": "string"
        }
      ],
      "stateMutability": "view",
      "type": "function"
    },
    {
      "inputs": [],
      "name": "owner",
      "outputs": [
        {
          "internalType": "address",
          "name": "",
          "type": "address"
        }
      ],
      "stateMutability": "view",
      "type": "function"
    },
    {
      "inputs": [
        {
          "internalType": "uint256",
          "name": "tokenId",
          "type": "uint256"
        }
      ],
      "name": "ownerOf",
      "outputs": [
        {
          "internalType": "address",
          "name": "",
          "type": "address"
        }
      ],
      "stateMutability": "view",
      "type": "function"
    },
    {
      "inputs": [],
      "name": "renounceOwnership",
      "outputs": [],
      "stateMutability": "nonpayable",
      "type": "function"
    },
    {
      "inputs": [
        {
          "internalType": "uint256",
          "name": "",
          "type": "uint256"
        }
      ],
      "name": "sbtData",
      "outputs": [
        {
          "internalType": "bytes",
          "name": "hashData",
          "type": "bytes"
        },
        {
          "components": [
            {
              "internalType": "bytes",
              "name": "iv",
              "type": "bytes"
            },
            {
              "internalType": "bytes",
              "name": "ephemPublicKey",
              "type": "bytes"
            },
            {
              "internalType": "bytes",
              "name": "cipherText",
              "type": "bytes"
            },
            {
              "internalType": "bytes",
              "name": "mac",
              "type": "bytes"
            }
          ],
          "internalType": "struct ZKPSBT.EncryptedData",
          "name": "encryptedCreditScore",
          "type": "tuple"
        },
        {
          "components": [
            {
              "internalType": "bytes",
              "name": "iv",
              "type": "bytes"
            },
            {
              "internalType": "bytes",
              "name": "ephemPublicKey",
              "type": "bytes"
            },
            {
              "internalType": "bytes",
              "name": "cipherText",
              "type": "bytes"
            },
            {
              "internalType": "bytes",
              "name": "mac",
              "type": "bytes"
            }
          ],
          "internalType": "struct ZKPSBT.EncryptedData",
          "name": "encryptedIncome",
          "type": "tuple"
        },
        {
          "components": [
            {
              "internalType": "bytes",
              "name": "iv",
              "type": "bytes"
            },
            {
              "internalType": "bytes",
              "name": "ephemPublicKey",
              "type": "bytes"
            },
            {
              "internalType": "bytes",
              "name": "cipherText",
              "type": "bytes"
            },
            {
              "internalType": "bytes",
              "name": "mac",
              "type": "bytes"
            }
          ],
          "internalType": "struct ZKPSBT.EncryptedData",
          "name": "encryptedReportDate",
          "type": "tuple"
        }
      ],
      "stateMutability": "view",
      "type": "function"
    },
    {
      "inputs": [
        {
          "internalType": "bytes4",
          "name": "interfaceId",
          "type": "bytes4"
        }
      ],
      "name": "supportsInterface",
      "outputs": [
        {
          "internalType": "bool",
          "name": "",
          "type": "bool"
        }
      ],
      "stateMutability": "view",
      "type": "function"
    },
    {
      "inputs": [],
      "name": "symbol",
      "outputs": [
        {
          "internalType": "string",
          "name": "",
          "type": "string"
        }
      ],
      "stateMutability": "view",
      "type": "function"
    },
    {
      "inputs": [
        {
          "internalType": "uint256",
          "name": "index",
          "type": "uint256"
        }
      ],
      "name": "tokenByIndex",
      "outputs": [
        {
          "internalType": "uint256",
          "name": "",
          "type": "uint256"
        }
      ],
      "stateMutability": "view",
      "type": "function"
    },
    {
      "inputs": [
        {
          "internalType": "address",
          "name": "owner",
          "type": "address"
        },
        {
          "internalType": "uint256",
          "name": "index",
          "type": "uint256"
        }
      ],
      "name": "tokenOfOwnerByIndex",
      "outputs": [
        {
          "internalType": "uint256",
          "name": "",
          "type": "uint256"
        }
      ],
      "stateMutability": "view",
      "type": "function"
    },
    {
      "inputs": [
        {
          "internalType": "uint256",
          "name": "tokenId",
          "type": "uint256"
        }
      ],
      "name": "tokenURI",
      "outputs": [
        {
          "internalType": "string",
          "name": "",
          "type": "string"
        }
      ],
      "stateMutability": "view",
      "type": "function"
    },
    {
      "inputs": [
        {
          "internalType": "address",
          "name": "newOwner",
          "type": "address"
        }
      ],
      "name": "transferOwnership",
      "outputs": [],
      "stateMutability": "nonpayable",
      "type": "function"
    }
  ],
  "transactionHash": "0xb0fd102d4c992f126678ed090c8fcdcae0df25da4e9465f290d9984aa18c8e82",
  "args": [
    "0x46c9cdA3F83C5c13C767A07b6E80aEd302E40B28",
    "ZKP SBT",
    "ZKPSBT"
  ],
  "numDeployments": 2,
  "solcInputHash": "16379d0b96cb1ce5932193721084d88c",
  "bytecode": "0x60806040523480156200001157600080fd5b50604051620029c9380380620029c98339810160408190526200003491620002a6565b8151829082906200004d90600490602085019062000174565b5080516200006390600590602084019062000174565b5050600880546001600160a01b03191633179055506200008a620000843390565b620000a9565b620000a083620000fb60201b620017391760201c565b50505062000500565b600980546001600160a01b038381166001600160a01b0319831681179093556040519116919082907f8be0079c531659141344cd1fd0a4f28419497f9722a3daafe3b4186f6b6457e090600090a35050565b6200010562000145565b6001600160a01b038116620001375760405162461bcd60e51b81526004016200012e9062000336565b60405180910390fd5b6200014281620000a9565b50565b6009546001600160a01b03163314620001725760405162461bcd60e51b81526004016200012e9062000381565b565b828054620001829062000450565b90600052602060002090601f016020900481019282620001a65760008555620001f1565b82601f10620001c157805160ff1916838001178555620001f1565b82800160010185558215620001f1579182015b82811115620001f1578251825591602001919060010190620001d4565b50620001ff92915062000203565b5090565b5b80821115620001ff576000815560010162000204565b6000620002316200022b84620003db565b620003bc565b9050828152602081018484840111156200024e576200024e600080fd5b6200025b8482856200041d565b509392505050565b80516200027081620004e9565b92915050565b600082601f8301126200028c576200028c600080fd5b81516200029e8482602086016200021a565b949350505050565b600080600060608486031215620002c057620002c0600080fd5b6000620002ce868662000263565b93505060208401516001600160401b03811115620002ef57620002ef600080fd5b620002fd8682870162000276565b92505060408401516001600160401b038111156200031e576200031e600080fd5b6200032c8682870162000276565b9150509250925092565b602080825281016200027081602681527f4f776e61626c653a206e6577206f776e657220697320746865207a65726f206160208201526564647265737360d01b604082015260600190565b60208082528181019081527f4f776e61626c653a2063616c6c6572206973206e6f7420746865206f776e657260408301526060820162000270565b6000620003c860405190565b9050620003d6828262000481565b919050565b60006001600160401b03821115620003f757620003f7620004c9565b6200040282620004df565b60200192915050565b60006001600160a01b03821662000270565b60005b838110156200043a57818101518382015260200162000420565b838111156200044a576000848401525b50505050565b6002810460018216806200046557607f821691505b602082108114156200047b576200047b620004b3565b50919050565b6200048c82620004df565b81018181106001600160401b0382111715620004ac57620004ac620004c9565b6040525050565b634e487b7160e01b600052602260045260246000fd5b634e487b7160e01b600052604160045260246000fd5b601f01601f191690565b620004f4816200040b565b81146200014257600080fd5b6124b980620005106000396000f3fe6080604052600436106100e45760003560e01c806301ffc9a7146100e957806306fdde031461011f57806326019c18146101415780632f745c591461015f5780633ec0b0bc1461017f57806343945512146101ae57806343c7db9a146101e65780634f6ccce7146101f95780636352211e146102175780636b4ed21b1461024457806370a0823114610259578063715018a61461028f578063776fafac146102a65780638da5cb5b146102d657806395d89b41146102eb578063aceaf4a014610300578063c87b56dd14610320578063f2fde38b14610340578063f577a50014610360575b600080fd5b3480156100f557600080fd5b50610109610104366004611f43565b610380565b604051610116919061216e565b60405180910390f35b34801561012b57600080fd5b506101346103ed565b604051610116919061217c565b34801561014d57600080fd5b506006545b60405161011691906122a7565b34801561016b57600080fd5b5061015261017a366004611f06565b61047f565b34801561018b57600080fd5b5061019f61019a366004611f64565b6104e6565b6040516101169392919061226e565b3480156101ba57600080fd5b506101096101c9366004611e02565b6001600160a01b0316600090815260036020526040902054151590565b6101526101f4366004611e23565b610c2a565b34801561020557600080fd5b50610152610214366004611f64565b90565b34801561022357600080fd5b50610237610232366004611f64565b610e2a565b6040516101169190612145565b34801561025057600080fd5b50600754610152565b34801561026557600080fd5b50610152610274366004611e02565b6001600160a01b031660009081526001602052604090205490565b34801561029b57600080fd5b506102a4610e48565b005b3480156102b257600080fd5b506102c66102c1366004611f64565b610e5c565b604051610116949392919061218d565b3480156102e257600080fd5b50610237611602565b3480156102f757600080fd5b50610134611611565b34801561030c57600080fd5b5061013461031b366004611f64565b611620565b34801561032c57600080fd5b5061013461033b366004611f64565b6116c2565b34801561034c57600080fd5b506102a461035b366004611e02565b611739565b34801561036c57600080fd5b5061010961037b366004611f64565b611773565b60006001600160e01b0319821663a511533d60e01b14806103b157506001600160e01b03198216635b5e139f60e01b145b806103cc57506001600160e01b03198216632d57debd60e01b145b806103e757506301ffc9a760e01b6001600160e01b03198316145b92915050565b6060600480546103fc906123a3565b80601f0160208091040260200160405190810160405280929190818152602001828054610428906123a3565b80156104755780601f1061044a57610100808354040283529160200191610475565b820191906000526020600020905b81548152906001019060200180831161045857829003601f168201915b5050505050905090565b6001600160a01b0382166000908152600160205260408120805483106104c05760405162461bcd60e51b81526004016104b79061223e565b60405180910390fd5b8083815481106104d2576104d2612423565b906000526020600020015491505092915050565b6104ee611b6e565b6104f6611b6e565b6104fe611b6e565b6000848152600a6020526040908190208151608081019092526001810180549092600583019260090191849082908290610537906123a3565b80601f0160208091040260200160405190810160405280929190818152602001828054610563906123a3565b80156105b05780601f10610585576101008083540402835291602001916105b0565b820191906000526020600020905b81548152906001019060200180831161059357829003601f168201915b505050505081526020016001820180546105c9906123a3565b80601f01602080910402602001604051908101604052809291908181526020018280546105f5906123a3565b80156106425780601f1061061757610100808354040283529160200191610642565b820191906000526020600020905b81548152906001019060200180831161062557829003601f168201915b5050505050815260200160028201805461065b906123a3565b80601f0160208091040260200160405190810160405280929190818152602001828054610687906123a3565b80156106d45780601f106106a9576101008083540402835291602001916106d4565b820191906000526020600020905b8154815290600101906020018083116106b757829003601f168201915b505050505081526020016003820180546106ed906123a3565b80601f0160208091040260200160405190810160405280929190818152602001828054610719906123a3565b80156107665780601f1061073b57610100808354040283529160200191610766565b820191906000526020600020905b81548152906001019060200180831161074957829003601f168201915b50505050508152505092508160405180608001604052908160008201805461078d906123a3565b80601f01602080910402602001604051908101604052809291908181526020018280546107b9906123a3565b80156108065780601f106107db57610100808354040283529160200191610806565b820191906000526020600020905b8154815290600101906020018083116107e957829003601f168201915b5050505050815260200160018201805461081f906123a3565b80601f016020809104026020016040519081016040528092919081815260200182805461084b906123a3565b80156108985780601f1061086d57610100808354040283529160200191610898565b820191906000526020600020905b81548152906001019060200180831161087b57829003601f168201915b505050505081526020016002820180546108b1906123a3565b80601f01602080910402602001604051908101604052809291908181526020018280546108dd906123a3565b801561092a5780601f106108ff5761010080835404028352916020019161092a565b820191906000526020600020905b81548152906001019060200180831161090d57829003601f168201915b50505050508152602001600382018054610943906123a3565b80601f016020809104026020016040519081016040528092919081815260200182805461096f906123a3565b80156109bc5780601f10610991576101008083540402835291602001916109bc565b820191906000526020600020905b81548152906001019060200180831161099f57829003601f168201915b5050505050815250509150806040518060800160405290816000820180546109e3906123a3565b80601f0160208091040260200160405190810160405280929190818152602001828054610a0f906123a3565b8015610a5c5780601f10610a3157610100808354040283529160200191610a5c565b820191906000526020600020905b815481529060010190602001808311610a3f57829003601f168201915b50505050508152602001600182018054610a75906123a3565b80601f0160208091040260200160405190810160405280929190818152602001828054610aa1906123a3565b8015610aee5780601f10610ac357610100808354040283529160200191610aee565b820191906000526020600020905b815481529060010190602001808311610ad157829003601f168201915b50505050508152602001600282018054610b07906123a3565b80601f0160208091040260200160405190810160405280929190818152602001828054610b33906123a3565b8015610b805780601f10610b5557610100808354040283529160200191610b80565b820191906000526020600020905b815481529060010190602001808311610b6357829003601f168201915b50505050508152602001600382018054610b99906123a3565b80601f0160208091040260200160405190810160405280929190818152602001828054610bc5906123a3565b8015610c125780601f10610be757610100808354040283529160200191610c12565b820191906000526020600020905b815481529060010190602001808311610bf557829003601f168201915b50505050508152505090509250925092509193909250565b600080610c3688611792565b6040805160a06020601f8b018190040282018101909252608081018981529293509182918a908a9081908501838280828437600092019190915250505090825250602001610c8387612344565b8152602001610c9186612344565b8152602001610c9f85612344565b90526000828152600a60209081526040909120825180519192610cc792849290910190611b96565b506020828101518051805191926001850192610ce69284920190611b96565b506020828101518051610cff9260018501920190611b96565b5060408201518051610d1b916002840191602090910190611b96565b5060608201518051610d37916003840191602090910190611b96565b5050506040820151805180516005840191610d5791839160200190611b96565b506020828101518051610d709260018501920190611b96565b5060408201518051610d8c916002840191602090910190611b96565b5060608201518051610da8916003840191602090910190611b96565b5050506060820151805180516009840191610dc891839160200190611b96565b506020828101518051610de19260018501920190611b96565b5060408201518051610dfd916002840191602090910190611b96565b5060608201518051610e19916003840191602090910190611b96565b50939b9a5050505050505050505050565b6000610e35826117f8565b600101546001600160a01b031692915050565b610e50611830565b610e5a600061185f565b565b600a60205260009081526040902080548190610e77906123a3565b80601f0160208091040260200160405190810160405280929190818152602001828054610ea3906123a3565b8015610ef05780601f10610ec557610100808354040283529160200191610ef0565b820191906000526020600020905b815481529060010190602001808311610ed357829003601f168201915b50505050509080600101604051806080016040529081600082018054610f15906123a3565b80601f0160208091040260200160405190810160405280929190818152602001828054610f41906123a3565b8015610f8e5780601f10610f6357610100808354040283529160200191610f8e565b820191906000526020600020905b815481529060010190602001808311610f7157829003601f168201915b50505050508152602001600182018054610fa7906123a3565b80601f0160208091040260200160405190810160405280929190818152602001828054610fd3906123a3565b80156110205780601f10610ff557610100808354040283529160200191611020565b820191906000526020600020905b81548152906001019060200180831161100357829003601f168201915b50505050508152602001600282018054611039906123a3565b80601f0160208091040260200160405190810160405280929190818152602001828054611065906123a3565b80156110b25780601f10611087576101008083540402835291602001916110b2565b820191906000526020600020905b81548152906001019060200180831161109557829003601f168201915b505050505081526020016003820180546110cb906123a3565b80601f01602080910402602001604051908101604052809291908181526020018280546110f7906123a3565b80156111445780601f1061111957610100808354040283529160200191611144565b820191906000526020600020905b81548152906001019060200180831161112757829003601f168201915b505050505081525050908060050160405180608001604052908160008201805461116d906123a3565b80601f0160208091040260200160405190810160405280929190818152602001828054611199906123a3565b80156111e65780601f106111bb576101008083540402835291602001916111e6565b820191906000526020600020905b8154815290600101906020018083116111c957829003601f168201915b505050505081526020016001820180546111ff906123a3565b80601f016020809104026020016040519081016040528092919081815260200182805461122b906123a3565b80156112785780601f1061124d57610100808354040283529160200191611278565b820191906000526020600020905b81548152906001019060200180831161125b57829003601f168201915b50505050508152602001600282018054611291906123a3565b80601f01602080910402602001604051908101604052809291908181526020018280546112bd906123a3565b801561130a5780601f106112df5761010080835404028352916020019161130a565b820191906000526020600020905b8154815290600101906020018083116112ed57829003601f168201915b50505050508152602001600382018054611323906123a3565b80601f016020809104026020016040519081016040528092919081815260200182805461134f906123a3565b801561139c5780601f106113715761010080835404028352916020019161139c565b820191906000526020600020905b81548152906001019060200180831161137f57829003601f168201915b50505050508152505090806009016040518060800160405290816000820180546113c5906123a3565b80601f01602080910402602001604051908101604052809291908181526020018280546113f1906123a3565b801561143e5780601f106114135761010080835404028352916020019161143e565b820191906000526020600020905b81548152906001019060200180831161142157829003601f168201915b50505050508152602001600182018054611457906123a3565b80601f0160208091040260200160405190810160405280929190818152602001828054611483906123a3565b80156114d05780601f106114a5576101008083540402835291602001916114d0565b820191906000526020600020905b8154815290600101906020018083116114b357829003601f168201915b505050505081526020016002820180546114e9906123a3565b80601f0160208091040260200160405190810160405280929190818152602001828054611515906123a3565b80156115625780601f1061153757610100808354040283529160200191611562565b820191906000526020600020905b81548152906001019060200180831161154557829003601f168201915b5050505050815260200160038201805461157b906123a3565b80601f01602080910402602001604051908101604052809291908181526020018280546115a7906123a3565b80156115f45780601f106115c9576101008083540402835291602001916115f4565b820191906000526020600020905b8154815290600101906020018083116115d757829003601f168201915b505050505081525050905084565b6009546001600160a01b031690565b6060600580546103fc906123a3565b6000818152600a6020526040902080546060919061163d906123a3565b80601f0160208091040260200160405190810160405280929190818152602001828054611669906123a3565b80156116b65780601f1061168b576101008083540402835291602001916116b6565b820191906000526020600020905b81548152906001019060200180831161169957829003601f168201915b50505050509050919050565b60606116cd826117f8565b5060006116e560408051602081019091526000815290565b80519091501561172357806116fb8460206118b1565b60405160200161170c92919061212d565b604051602081830303815290604052915050919050565b5050604080516020810190915260008152919050565b611741611830565b6001600160a01b0381166117675760405162461bcd60e51b81526004016104b7906121f4565b6117708161185f565b50565b600061177e826117f8565b60010154600160a01b900460ff1692915050565b6006546117a182826001611a23565b7f30385c845b448a36257a6a1716e6ad2e1bc2cbe333cde1e69fe849ad6511adfe82826040516117d2929190612153565b60405180910390a16001600660008282546117ed91906122fc565b909155509092915050565b600081815260208190526040812060018101546001600160a01b03166103e75760405162461bcd60e51b81526004016104b79061223e565b33611839611602565b6001600160a01b031614610e5a5760405162461bcd60e51b81526004016104b79061224e565b600980546001600160a01b038381166001600160a01b0319831681179093556040519116919082907f8be0079c531659141344cd1fd0a4f28419497f9722a3daafe3b4186f6b6457e090600090a35050565b606060006118c0836002612314565b6118cb9060026122fc565b6001600160401b038111156118e2576118e2612439565b6040519080825280601f01601f19166020018201604052801561190c576020820181803683370190505b509050600360fc1b8160008151811061192757611927612423565b60200101906001600160f81b031916908160001a905350600f60fb1b8160018151811061195657611956612423565b60200101906001600160f81b031916908160001a905350600061197a846002612314565b6119859060016122fc565b90505b60018111156119fd576f181899199a1a9b1b9c1cb0b131b232b360811b85600f16601081106119b9576119b9612423565b1a60f81b8282815181106119cf576119cf612423565b60200101906001600160f81b031916908160001a90535060049490941c936119f68161238c565b9050611988565b508315611a1c5760405162461bcd60e51b81526004016104b7906121e4565b9392505050565b6000828152602081905260409020600101546001600160a01b031615611a5b5760405162461bcd60e51b81526004016104b79061225e565b6001600160a01b038316600090815260016020526040902054611a9157600160076000828254611a8b91906122fc565b90915550505b604080516060810182523381526001600160a01b0385811660208084018281528615801586880190815260008a8152808552888120975188549088166001600160a01b031990911617885592516001978801805492511515600160a01b026001600160a81b03199093169190971617179094559182528381528482208054600283528684208985528352958320869055848252938501845592815291909120909101839055611b69576001600160a01b0383166000908152600360205260408120805460019290611b639084906122fc565b90915550505b505050565b6040518060800160405280606081526020016060815260200160608152602001606081525090565b828054611ba2906123a3565b90600052602060002090601f016020900481019282611bc45760008555611c0a565b82601f10611bdd57805160ff1916838001178555611c0a565b82800160010185558215611c0a579182015b82811115611c0a578251825591602001919060010190611bef565b50611c16929150611c1a565b5090565b5b80821115611c165760008155600101611c1b565b6000611c42611c3d846122d1565b6122b5565b905082815260208101848484011115611c5d57611c5d600080fd5b611c68848285612350565b509392505050565b80356103e781612459565b80356103e78161246d565b60008083601f840112611c9b57611c9b600080fd5b5081356001600160401b03811115611cb557611cb5600080fd5b602083019150836001820283011115611cd057611cd0600080fd5b9250929050565b600082601f830112611ceb57611ceb600080fd5b8135611cfb848260208601611c2f565b949350505050565b600060808284031215611d1857611d18600080fd5b50919050565b600060808284031215611d3357611d33600080fd5b611d3d60806122b5565b905081356001600160401b03811115611d5857611d58600080fd5b611d6484828501611cd7565b82525060208201356001600160401b03811115611d8357611d83600080fd5b611d8f84828501611cd7565b60208301525060408201356001600160401b03811115611db157611db1600080fd5b611dbd84828501611cd7565b60408301525060608201356001600160401b03811115611ddf57611ddf600080fd5b611deb84828501611cd7565b60608301525092915050565b80356103e78161247d565b600060208284031215611e1757611e17600080fd5b6000611cfb8484611c70565b60008060008060008060a08789031215611e3f57611e3f600080fd5b6000611e4b8989611c70565b96505060208701356001600160401b03811115611e6a57611e6a600080fd5b611e7689828a01611c86565b955095505060408701356001600160401b03811115611e9757611e97600080fd5b611ea389828a01611d03565b93505060608701356001600160401b03811115611ec257611ec2600080fd5b611ece89828a01611d03565b92505060808701356001600160401b03811115611eed57611eed600080fd5b611ef989828a01611d03565b9150509295509295509295565b60008060408385031215611f1c57611f1c600080fd5b6000611f288585611c70565b9250506020611f3985828601611df7565b9150509250929050565b600060208284031215611f5857611f58600080fd5b6000611cfb8484611c7b565b600060208284031215611f7957611f79600080fd5b6000611cfb8484611df7565b611f8e81612333565b82525050565b801515611f8e565b6000611fa6825190565b808452602084019350611fbd81856020860161235c565b611fc68161244f565b9093019392505050565b6000611fda825190565b611fe881856020860161235c565b9290920192915050565b60208082527f537472696e67733a20686578206c656e67746820696e73756666696369656e74910190815260005b5060200190565b6014815260006020820173151bdad95b88191bd95cc81b9bdd08195e1a5cdd60621b81529150612020565b60208082527f4f776e61626c653a2063616c6c6572206973206e6f7420746865206f776e657291019081526000612020565b601d81526000602082017f43616e6e6f74206d696e7420616e2061737369676e656420746f6b656e00000081529150612020565b80516080808452600091908401906120d08282611f9c565b915050602083015184820360208601526120ea8282611f9c565b915050604083015184820360408601526121048282611f9c565b9150506060830151848203606086015261211e8282611f9c565b95945050505050565b80611f8e565b60006121398285611fd0565b9150611cfb8284611fd0565b602081016103e78284611f85565b604081016121618285611f85565b611a1c6020830184612127565b602081016103e78284611f94565b60208082528101611a1c8184611f9c565b6080808252810161219e8187611f9c565b905081810360208301526121b281866120b8565b905081810360408301526121c681856120b8565b905081810360608301526121da81846120b8565b9695505050505050565b602080825281016103e781611ff2565b602080825281016103e781602681527f4f776e61626c653a206e6577206f776e657220697320746865207a65726f206160208201526564647265737360d01b604082015260600190565b602080825281016103e781612027565b602080825281016103e781612052565b602080825281016103e781612084565b6060808252810161227f81866120b8565b9050818103602083015261229381856120b8565b9050818103604083015261211e81846120b8565b602081016103e78284612127565b60006122c060405190565b90506122cc82826123ca565b919050565b60006001600160401b038211156122ea576122ea612439565b6122f38261244f565b60200192915050565b6000821982111561230f5761230f6123f7565b500190565b600081600019048311821515161561232e5761232e6123f7565b500290565b60006001600160a01b0382166103e7565b60006103e73683611d1e565b82818337506000910152565b60005b8381101561237757818101518382015260200161235f565b83811115612386576000848401525b50505050565b60008161239b5761239b6123f7565b506000190190565b6002810460018216806123b757607f821691505b60208210811415611d1857611d1861240d565b6123d38261244f565b81018181106001600160401b03821117156123f0576123f0612439565b6040525050565b634e487b7160e01b600052601160045260246000fd5b634e487b7160e01b600052602260045260246000fd5b634e487b7160e01b600052603260045260246000fd5b634e487b7160e01b600052604160045260246000fd5b601f01601f191690565b61246281612333565b811461177057600080fd5b6001600160e01b03198116612462565b8061246256fea2646970667358221220bff18d77e0cc3251a80a56fe29d6fa71bacc4807771f33ca2d7f52b7de7ba8a064736f6c63430008070033",
  "devdoc": {
    "author": "Miquel A. Cabot",
    "details": "Inherits from the SSBT contract",
    "kind": "dev",
    "methods": {
      "balanceOf(address)": {
        "params": {
          "owner": "Address for whom to query the balance"
        },
        "returns": {
          "_0": "Number of tokens owned by `owner`"
        }
      },
      "constructor": {
        "details": "Creates a new ZKP SBT, inheriting from the SBT contract.",
        "params": {
          "admin": "Administrator of the smart contract",
          "name": "Name of the token",
          "symbol": "Symbol of the token"
        }
      },
      "emittedCount()": {
        "returns": {
          "_0": "emittedCount Number of tokens emitted"
        }
      },
      "hasValid(address)": {
        "params": {
          "owner": "Address for whom to check the ownership"
        },
        "returns": {
          "_0": "True if `owner` has a valid token, false otherwise"
        }
      },
      "holdersCount()": {
        "returns": {
          "_0": "holdersCount Number of token holders"
        }
      },
      "isValid(uint256)": {
        "params": {
          "tokenId": "Identifier of the token"
        },
        "returns": {
          "_0": "True if the token is valid, false otherwise"
        }
      },
      "mint(address,bytes,(bytes,bytes,bytes,bytes),(bytes,bytes,bytes,bytes),(bytes,bytes,bytes,bytes))": {
        "details": "The caller must have the MINTER role",
        "params": {
          "encryptedCreditScore": "Encrypted credit score",
          "encryptedIncome": "Encrypted income",
          "encryptedReportDate": "Encrypted report date",
          "hashData": "Hash of ownerAddress+creditScore without encryption, used to verify the data",
          "to": "The address to mint the SBT to"
        },
        "returns": {
          "_0": "The SBT ID of the newly minted SBT"
        }
      },
      "name()": {
        "returns": {
          "_0": "Descriptive name of the tokens in this contract"
        }
      },
      "owner()": {
        "details": "Returns the address of the current owner."
      },
      "ownerOf(uint256)": {
        "params": {
          "tokenId": "Identifier of the token"
        },
        "returns": {
          "_0": "Address of the owner of `tokenId`"
        }
      },
      "renounceOwnership()": {
        "details": "Leaves the contract without owner. It will not be possible to call `onlyOwner` functions anymore. Can only be called by the current owner. NOTE: Renouncing ownership will leave the contract without an owner, thereby removing any functionality that is only available to the owner."
      },
      "symbol()": {
        "returns": {
          "_0": "An abbreviated name of the tokens in this contract"
        }
      },
      "tokenByIndex(uint256)": {
        "params": {
          "index": "Index of the token"
        },
        "returns": {
          "_0": "tokenId of the token"
        }
      },
      "tokenOfOwnerByIndex(address,uint256)": {
        "params": {
          "index": "Index of the token",
          "owner": "Address for whom to get the token"
        },
        "returns": {
          "_0": "tokenId of the token"
        }
      },
      "tokenURI(uint256)": {
        "params": {
          "tokenId": "Identifier of the token"
        },
        "returns": {
          "_0": "URI for the token"
        }
      },
      "transferOwnership(address)": {
        "details": "Transfers ownership of the contract to a new account (`newOwner`). Can only be called by the current owner."
      }
    },
    "title": "ZKP SBT",
    "version": 1
  },
  "userdoc": {
    "events": {
      "Minted(address,uint256)": {
        "notice": "Event emitted when a token `tokenId` is minted for `owner`"
      },
      "Revoked(address,uint256)": {
        "notice": "Event emitted when token `tokenId` of `owner` is revoked"
      }
    },
    "kind": "user",
    "methods": {
      "balanceOf(address)": {
        "notice": "Count all tokens assigned to an owner"
      },
      "constructor": {
        "notice": "Creates a new ZKP SBT"
      },
      "hasValid(address)": {
        "notice": "Check if an address owns a valid token in the contract"
      },
      "isValid(uint256)": {
        "notice": "Check if a token hasn't been revoked"
      },
      "mint(address,bytes,(bytes,bytes,bytes,bytes),(bytes,bytes,bytes,bytes),(bytes,bytes,bytes,bytes))": {
        "notice": "Mints a new SBT"
      },
      "ownerOf(uint256)": {
        "notice": "Get owner of a token"
      },
      "tokenByIndex(uint256)": {
        "notice": "Get a tokenId by it's index, where 0 <= index < total()"
      },
      "tokenOfOwnerByIndex(address,uint256)": {
        "notice": "Get the tokenId of a token using its position in the owner's list"
      },
      "tokenURI(uint256)": {
        "notice": "URI to query to get the token's metadata"
      }
    },
    "notice": "Soulbound token implementing ZKP",
    "version": 1
  },
  "storageLayout": {
    "storage": [
      {
        "astId": 1375,
        "contract": "contracts/ZKPSBT.sol:ZKPSBT",
        "label": "_tokens",
        "offset": 0,
        "slot": "0",
        "type": "t_mapping(t_uint256,t_struct(Token)1370_storage)"
      },
      {
        "astId": 1380,
        "contract": "contracts/ZKPSBT.sol:ZKPSBT",
        "label": "_indexedTokenIds",
        "offset": 0,
        "slot": "1",
        "type": "t_mapping(t_address,t_array(t_uint256)dyn_storage)"
      },
      {
        "astId": 1386,
        "contract": "contracts/ZKPSBT.sol:ZKPSBT",
        "label": "_tokenIdIndex",
        "offset": 0,
        "slot": "2",
        "type": "t_mapping(t_address,t_mapping(t_uint256,t_uint256))"
      },
      {
        "astId": 1390,
        "contract": "contracts/ZKPSBT.sol:ZKPSBT",
        "label": "_numberOfValidTokens",
        "offset": 0,
        "slot": "3",
        "type": "t_mapping(t_address,t_uint256)"
      },
      {
        "astId": 1392,
        "contract": "contracts/ZKPSBT.sol:ZKPSBT",
        "label": "_name",
        "offset": 0,
        "slot": "4",
        "type": "t_string_storage"
      },
      {
        "astId": 1394,
        "contract": "contracts/ZKPSBT.sol:ZKPSBT",
        "label": "_symbol",
        "offset": 0,
        "slot": "5",
        "type": "t_string_storage"
      },
      {
        "astId": 1396,
        "contract": "contracts/ZKPSBT.sol:ZKPSBT",
        "label": "_emittedCount",
        "offset": 0,
        "slot": "6",
        "type": "t_uint256"
      },
      {
        "astId": 1398,
        "contract": "contracts/ZKPSBT.sol:ZKPSBT",
        "label": "_holdersCount",
        "offset": 0,
        "slot": "7",
        "type": "t_uint256"
      },
      {
        "astId": 1400,
        "contract": "contracts/ZKPSBT.sol:ZKPSBT",
        "label": "_creator",
        "offset": 0,
        "slot": "8",
        "type": "t_address"
      },
      {
        "astId": 7,
        "contract": "contracts/ZKPSBT.sol:ZKPSBT",
        "label": "_owner",
        "offset": 0,
        "slot": "9",
        "type": "t_address"
      },
      {
        "astId": 1245,
        "contract": "contracts/ZKPSBT.sol:ZKPSBT",
        "label": "sbtData",
        "offset": 0,
        "slot": "10",
        "type": "t_mapping(t_uint256,t_struct(SBTData)1240_storage)"
      }
    ],
    "types": {
      "t_address": {
        "encoding": "inplace",
        "label": "address",
        "numberOfBytes": "20"
      },
      "t_array(t_uint256)dyn_storage": {
        "base": "t_uint256",
        "encoding": "dynamic_array",
        "label": "uint256[]",
        "numberOfBytes": "32"
      },
      "t_bool": {
        "encoding": "inplace",
        "label": "bool",
        "numberOfBytes": "1"
      },
      "t_bytes_storage": {
        "encoding": "bytes",
        "label": "bytes",
        "numberOfBytes": "32"
      },
      "t_mapping(t_address,t_array(t_uint256)dyn_storage)": {
        "encoding": "mapping",
        "key": "t_address",
        "label": "mapping(address => uint256[])",
        "numberOfBytes": "32",
        "value": "t_array(t_uint256)dyn_storage"
      },
      "t_mapping(t_address,t_mapping(t_uint256,t_uint256))": {
        "encoding": "mapping",
        "key": "t_address",
        "label": "mapping(address => mapping(uint256 => uint256))",
        "numberOfBytes": "32",
        "value": "t_mapping(t_uint256,t_uint256)"
      },
      "t_mapping(t_address,t_uint256)": {
        "encoding": "mapping",
        "key": "t_address",
        "label": "mapping(address => uint256)",
        "numberOfBytes": "32",
        "value": "t_uint256"
      },
      "t_mapping(t_uint256,t_struct(SBTData)1240_storage)": {
        "encoding": "mapping",
        "key": "t_uint256",
        "label": "mapping(uint256 => struct ZKPSBT.SBTData)",
        "numberOfBytes": "32",
        "value": "t_struct(SBTData)1240_storage"
      },
      "t_mapping(t_uint256,t_struct(Token)1370_storage)": {
        "encoding": "mapping",
        "key": "t_uint256",
        "label": "mapping(uint256 => struct ERC4671.Token)",
        "numberOfBytes": "32",
        "value": "t_struct(Token)1370_storage"
      },
      "t_mapping(t_uint256,t_uint256)": {
        "encoding": "mapping",
        "key": "t_uint256",
        "label": "mapping(uint256 => uint256)",
        "numberOfBytes": "32",
        "value": "t_uint256"
      },
      "t_string_storage": {
        "encoding": "bytes",
        "label": "string",
        "numberOfBytes": "32"
      },
      "t_struct(EncryptedData)1228_storage": {
        "encoding": "inplace",
        "label": "struct ZKPSBT.EncryptedData",
        "members": [
          {
            "astId": 1221,
            "contract": "contracts/ZKPSBT.sol:ZKPSBT",
            "label": "iv",
            "offset": 0,
            "slot": "0",
            "type": "t_bytes_storage"
          },
          {
            "astId": 1223,
            "contract": "contracts/ZKPSBT.sol:ZKPSBT",
            "label": "ephemPublicKey",
            "offset": 0,
            "slot": "1",
            "type": "t_bytes_storage"
          },
          {
            "astId": 1225,
            "contract": "contracts/ZKPSBT.sol:ZKPSBT",
            "label": "cipherText",
            "offset": 0,
            "slot": "2",
            "type": "t_bytes_storage"
          },
          {
            "astId": 1227,
            "contract": "contracts/ZKPSBT.sol:ZKPSBT",
            "label": "mac",
            "offset": 0,
            "slot": "3",
            "type": "t_bytes_storage"
          }
        ],
        "numberOfBytes": "128"
      },
      "t_struct(SBTData)1240_storage": {
        "encoding": "inplace",
        "label": "struct ZKPSBT.SBTData",
        "members": [
          {
            "astId": 1230,
            "contract": "contracts/ZKPSBT.sol:ZKPSBT",
            "label": "hashData",
            "offset": 0,
            "slot": "0",
            "type": "t_bytes_storage"
          },
          {
            "astId": 1233,
            "contract": "contracts/ZKPSBT.sol:ZKPSBT",
            "label": "encryptedCreditScore",
            "offset": 0,
            "slot": "1",
            "type": "t_struct(EncryptedData)1228_storage"
          },
          {
            "astId": 1236,
            "contract": "contracts/ZKPSBT.sol:ZKPSBT",
            "label": "encryptedIncome",
            "offset": 0,
            "slot": "5",
            "type": "t_struct(EncryptedData)1228_storage"
          },
          {
            "astId": 1239,
            "contract": "contracts/ZKPSBT.sol:ZKPSBT",
            "label": "encryptedReportDate",
            "offset": 0,
            "slot": "9",
            "type": "t_struct(EncryptedData)1228_storage"
          }
        ],
        "numberOfBytes": "416"
      },
      "t_struct(Token)1370_storage": {
        "encoding": "inplace",
        "label": "struct ERC4671.Token",
        "members": [
          {
            "astId": 1365,
            "contract": "contracts/ZKPSBT.sol:ZKPSBT",
            "label": "issuer",
            "offset": 0,
            "slot": "0",
            "type": "t_address"
          },
          {
            "astId": 1367,
            "contract": "contracts/ZKPSBT.sol:ZKPSBT",
            "label": "owner",
            "offset": 0,
            "slot": "1",
            "type": "t_address"
          },
          {
            "astId": 1369,
            "contract": "contracts/ZKPSBT.sol:ZKPSBT",
            "label": "valid",
            "offset": 20,
            "slot": "1",
            "type": "t_bool"
          }
        ],
        "numberOfBytes": "64"
      },
      "t_uint256": {
        "encoding": "inplace",
        "label": "uint256",
        "numberOfBytes": "32"
      }
    }
  }
}