{
  "address": "0x1B830e25CcBf8C0D512653800a294876fA658c67",
  "abi": [
    {
      "inputs": [
        {
          "internalType": "address",
          "name": "admin",
          "type": "address"
        },
        {
          "internalType": "string",
          "name": "name",
          "type": "string"
        },
        {
          "internalType": "string",
          "name": "symbol",
          "type": "string"
        }
      ],
      "stateMutability": "nonpayable",
      "type": "constructor"
    },
    {
      "anonymous": false,
      "inputs": [
        {
          "indexed": false,
          "internalType": "address",
          "name": "owner",
          "type": "address"
        },
        {
          "indexed": false,
          "internalType": "uint256",
          "name": "tokenId",
          "type": "uint256"
        }
      ],
      "name": "Minted",
      "type": "event"
    },
    {
      "anonymous": false,
      "inputs": [
        {
          "indexed": true,
          "internalType": "address",
          "name": "previousOwner",
          "type": "address"
        },
        {
          "indexed": true,
          "internalType": "address",
          "name": "newOwner",
          "type": "address"
        }
      ],
      "name": "OwnershipTransferred",
      "type": "event"
    },
    {
      "anonymous": false,
      "inputs": [
        {
          "indexed": false,
          "internalType": "address",
          "name": "owner",
          "type": "address"
        },
        {
          "indexed": false,
          "internalType": "uint256",
          "name": "tokenId",
          "type": "uint256"
        }
      ],
      "name": "Revoked",
      "type": "event"
    },
    {
      "inputs": [
        {
          "internalType": "address",
          "name": "owner",
          "type": "address"
        }
      ],
      "name": "balanceOf",
      "outputs": [
        {
          "internalType": "uint256",
          "name": "",
          "type": "uint256"
        }
      ],
      "stateMutability": "view",
      "type": "function"
    },
    {
      "inputs": [],
      "name": "emittedCount",
      "outputs": [
        {
          "internalType": "uint256",
          "name": "",
          "type": "uint256"
        }
      ],
      "stateMutability": "view",
      "type": "function"
    },
    {
      "inputs": [
        {
          "internalType": "uint256",
          "name": "tokenId",
          "type": "uint256"
        }
      ],
      "name": "getEncryptedData",
      "outputs": [
        {
          "components": [
            {
              "internalType": "bytes",
              "name": "iv",
              "type": "bytes"
            },
            {
              "internalType": "bytes",
              "name": "ephemPublicKey",
              "type": "bytes"
            },
            {
              "internalType": "bytes",
              "name": "ciphertext",
              "type": "bytes"
            },
            {
              "internalType": "bytes",
              "name": "mac",
              "type": "bytes"
            }
          ],
          "internalType": "struct ZKSBT.EncryptedData",
          "name": "",
          "type": "tuple"
        },
        {
          "components": [
            {
              "internalType": "bytes",
              "name": "iv",
              "type": "bytes"
            },
            {
              "internalType": "bytes",
              "name": "ephemPublicKey",
              "type": "bytes"
            },
            {
              "internalType": "bytes",
              "name": "ciphertext",
              "type": "bytes"
            },
            {
              "internalType": "bytes",
              "name": "mac",
              "type": "bytes"
            }
          ],
          "internalType": "struct ZKSBT.EncryptedData",
          "name": "",
          "type": "tuple"
        },
        {
          "components": [
            {
              "internalType": "bytes",
              "name": "iv",
              "type": "bytes"
            },
            {
              "internalType": "bytes",
              "name": "ephemPublicKey",
              "type": "bytes"
            },
            {
              "internalType": "bytes",
              "name": "ciphertext",
              "type": "bytes"
            },
            {
              "internalType": "bytes",
              "name": "mac",
              "type": "bytes"
            }
          ],
          "internalType": "struct ZKSBT.EncryptedData",
          "name": "",
          "type": "tuple"
        }
      ],
      "stateMutability": "view",
      "type": "function"
    },
    {
      "inputs": [
        {
          "internalType": "uint256",
          "name": "tokenId",
          "type": "uint256"
        }
      ],
      "name": "getRoot",
      "outputs": [
        {
          "internalType": "bytes",
          "name": "",
          "type": "bytes"
        }
      ],
      "stateMutability": "view",
      "type": "function"
    },
    {
      "inputs": [
        {
          "internalType": "address",
          "name": "owner",
          "type": "address"
        }
      ],
      "name": "hasValid",
      "outputs": [
        {
          "internalType": "bool",
          "name": "",
          "type": "bool"
        }
      ],
      "stateMutability": "view",
      "type": "function"
    },
    {
      "inputs": [],
      "name": "holdersCount",
      "outputs": [
        {
          "internalType": "uint256",
          "name": "",
          "type": "uint256"
        }
      ],
      "stateMutability": "view",
      "type": "function"
    },
    {
      "inputs": [
        {
          "internalType": "uint256",
          "name": "tokenId",
          "type": "uint256"
        }
      ],
      "name": "isValid",
      "outputs": [
        {
          "internalType": "bool",
          "name": "",
          "type": "bool"
        }
      ],
      "stateMutability": "view",
      "type": "function"
    },
    {
      "inputs": [
        {
          "internalType": "address",
          "name": "to",
          "type": "address"
        },
        {
          "internalType": "bytes",
          "name": "root",
          "type": "bytes"
        },
        {
          "components": [
            {
              "internalType": "bytes",
              "name": "iv",
              "type": "bytes"
            },
            {
              "internalType": "bytes",
              "name": "ephemPublicKey",
              "type": "bytes"
            },
            {
              "internalType": "bytes",
              "name": "ciphertext",
              "type": "bytes"
            },
            {
              "internalType": "bytes",
              "name": "mac",
              "type": "bytes"
            }
          ],
          "internalType": "struct ZKSBT.EncryptedData",
          "name": "encryptedCreditScore",
          "type": "tuple"
        },
        {
          "components": [
            {
              "internalType": "bytes",
              "name": "iv",
              "type": "bytes"
            },
            {
              "internalType": "bytes",
              "name": "ephemPublicKey",
              "type": "bytes"
            },
            {
              "internalType": "bytes",
              "name": "ciphertext",
              "type": "bytes"
            },
            {
              "internalType": "bytes",
              "name": "mac",
              "type": "bytes"
            }
          ],
          "internalType": "struct ZKSBT.EncryptedData",
          "name": "encryptedIncome",
          "type": "tuple"
        },
        {
          "components": [
            {
              "internalType": "bytes",
              "name": "iv",
              "type": "bytes"
            },
            {
              "internalType": "bytes",
              "name": "ephemPublicKey",
              "type": "bytes"
            },
            {
              "internalType": "bytes",
              "name": "ciphertext",
              "type": "bytes"
            },
            {
              "internalType": "bytes",
              "name": "mac",
              "type": "bytes"
            }
          ],
          "internalType": "struct ZKSBT.EncryptedData",
          "name": "encryptedReportDate",
          "type": "tuple"
        }
      ],
      "name": "mint",
      "outputs": [
        {
          "internalType": "uint256",
          "name": "",
          "type": "uint256"
        }
      ],
      "stateMutability": "payable",
      "type": "function"
    },
    {
      "inputs": [],
      "name": "name",
      "outputs": [
        {
          "internalType": "string",
          "name": "",
          "type": "string"
        }
      ],
      "stateMutability": "view",
      "type": "function"
    },
    {
      "inputs": [],
      "name": "owner",
      "outputs": [
        {
          "internalType": "address",
          "name": "",
          "type": "address"
        }
      ],
      "stateMutability": "view",
      "type": "function"
    },
    {
      "inputs": [
        {
          "internalType": "uint256",
          "name": "tokenId",
          "type": "uint256"
        }
      ],
      "name": "ownerOf",
      "outputs": [
        {
          "internalType": "address",
          "name": "",
          "type": "address"
        }
      ],
      "stateMutability": "view",
      "type": "function"
    },
    {
      "inputs": [],
      "name": "renounceOwnership",
      "outputs": [],
      "stateMutability": "nonpayable",
      "type": "function"
    },
    {
      "inputs": [
        {
          "internalType": "uint256",
          "name": "",
          "type": "uint256"
        }
      ],
      "name": "sbtData",
      "outputs": [
        {
          "internalType": "bytes",
          "name": "root",
          "type": "bytes"
        },
        {
          "components": [
            {
              "internalType": "bytes",
              "name": "iv",
              "type": "bytes"
            },
            {
              "internalType": "bytes",
              "name": "ephemPublicKey",
              "type": "bytes"
            },
            {
              "internalType": "bytes",
              "name": "ciphertext",
              "type": "bytes"
            },
            {
              "internalType": "bytes",
              "name": "mac",
              "type": "bytes"
            }
          ],
          "internalType": "struct ZKSBT.EncryptedData",
          "name": "encryptedCreditScore",
          "type": "tuple"
        },
        {
          "components": [
            {
              "internalType": "bytes",
              "name": "iv",
              "type": "bytes"
            },
            {
              "internalType": "bytes",
              "name": "ephemPublicKey",
              "type": "bytes"
            },
            {
              "internalType": "bytes",
              "name": "ciphertext",
              "type": "bytes"
            },
            {
              "internalType": "bytes",
              "name": "mac",
              "type": "bytes"
            }
          ],
          "internalType": "struct ZKSBT.EncryptedData",
          "name": "encryptedIncome",
          "type": "tuple"
        },
        {
          "components": [
            {
              "internalType": "bytes",
              "name": "iv",
              "type": "bytes"
            },
            {
              "internalType": "bytes",
              "name": "ephemPublicKey",
              "type": "bytes"
            },
            {
              "internalType": "bytes",
              "name": "ciphertext",
              "type": "bytes"
            },
            {
              "internalType": "bytes",
              "name": "mac",
              "type": "bytes"
            }
          ],
          "internalType": "struct ZKSBT.EncryptedData",
          "name": "encryptedReportDate",
          "type": "tuple"
        }
      ],
      "stateMutability": "view",
      "type": "function"
    },
    {
      "inputs": [
        {
          "internalType": "bytes4",
          "name": "interfaceId",
          "type": "bytes4"
        }
      ],
      "name": "supportsInterface",
      "outputs": [
        {
          "internalType": "bool",
          "name": "",
          "type": "bool"
        }
      ],
      "stateMutability": "view",
      "type": "function"
    },
    {
      "inputs": [],
      "name": "symbol",
      "outputs": [
        {
          "internalType": "string",
          "name": "",
          "type": "string"
        }
      ],
      "stateMutability": "view",
      "type": "function"
    },
    {
      "inputs": [
        {
          "internalType": "uint256",
          "name": "index",
          "type": "uint256"
        }
      ],
      "name": "tokenByIndex",
      "outputs": [
        {
          "internalType": "uint256",
          "name": "",
          "type": "uint256"
        }
      ],
      "stateMutability": "view",
      "type": "function"
    },
    {
      "inputs": [
        {
          "internalType": "address",
          "name": "owner",
          "type": "address"
        },
        {
          "internalType": "uint256",
          "name": "index",
          "type": "uint256"
        }
      ],
      "name": "tokenOfOwnerByIndex",
      "outputs": [
        {
          "internalType": "uint256",
          "name": "",
          "type": "uint256"
        }
      ],
      "stateMutability": "view",
      "type": "function"
    },
    {
      "inputs": [
        {
          "internalType": "uint256",
          "name": "tokenId",
          "type": "uint256"
        }
      ],
      "name": "tokenURI",
      "outputs": [
        {
          "internalType": "string",
          "name": "",
          "type": "string"
        }
      ],
      "stateMutability": "view",
      "type": "function"
    },
    {
      "inputs": [
        {
          "internalType": "address",
          "name": "newOwner",
          "type": "address"
        }
      ],
      "name": "transferOwnership",
      "outputs": [],
      "stateMutability": "nonpayable",
      "type": "function"
    }
  ],
  "transactionHash": "0xeffeede00d460a6c7b59aaeec025eb1dcb83a704cc0eaeb0093c205b12dd5cac",
  "args": [
    "0x46c9cdA3F83C5c13C767A07b6E80aEd302E40B28",
    "ZKP SBT",
    "ZKSBT"
  ],
  "numDeployments": 1,
  "solcInputHash": "bbf39d6475e69d556b72ee5bd3c3669f",
  "bytecode": "0x60806040523480156200001157600080fd5b50604051620029bc380380620029bc83398101604081905262000034916200039e565b8151829082906200004d90600490602085019062000174565b5080516200006390600590602084019062000174565b5050600880546001600160a01b03191633179055506200008a620000843390565b620000a9565b620000a083620000fb60201b620017391760201c565b505050620004fb565b600980546001600160a01b038381166001600160a01b0319831681179093556040519116919082907f8be0079c531659141344cd1fd0a4f28419497f9722a3daafe3b4186f6b6457e090600090a35050565b6200010562000145565b6001600160a01b038116620001375760405162461bcd60e51b81526004016200012e906200042e565b60405180910390fd5b6200014281620000a9565b50565b6009546001600160a01b03163314620001725760405162461bcd60e51b81526004016200012e9062000479565b565b8280546200018290620004ca565b90600052602060002090601f016020900481019282620001a65760008555620001f1565b82601f10620001c157805160ff1916838001178555620001f1565b82800160010185558215620001f1579182015b82811115620001f1578251825591602001919060010190620001d4565b50620001ff92915062000203565b5090565b5b80821115620001ff576000815560010162000204565b60006001600160a01b0382165b92915050565b62000238816200021a565b81146200014257600080fd5b805162000227816200022d565b601f01601f191690565b634e487b7160e01b600052604160045260246000fd5b6200027c8262000251565b81018181106001600160401b03821117156200029c576200029c6200025b565b6040525050565b6000620002af60405190565b9050620002bd828262000271565b919050565b60006001600160401b03821115620002de57620002de6200025b565b620002e98262000251565b60200192915050565b60005b838110156200030f578181015183820152602001620002f5565b838111156200031f576000848401525b50505050565b60006200033c6200033684620002c2565b620002a3565b905082815260208101848484011115620003595762000359600080fd5b62000366848285620002f2565b509392505050565b600082601f830112620003845762000384600080fd5b81516200039684826020860162000325565b949350505050565b600080600060608486031215620003b857620003b8600080fd5b6000620003c6868662000244565b93505060208401516001600160401b03811115620003e757620003e7600080fd5b620003f5868287016200036e565b92505060408401516001600160401b03811115620004165762000416600080fd5b62000424868287016200036e565b9150509250925092565b602080825281016200022781602681527f4f776e61626c653a206e6577206f776e657220697320746865207a65726f206160208201526564647265737360d01b604082015260600190565b60208082528181019081527f4f776e61626c653a2063616c6c6572206973206e6f7420746865206f776e657260408301526060820162000227565b634e487b7160e01b600052602260045260246000fd5b600281046001821680620004df57607f821691505b60208210811415620004f557620004f5620004b4565b50919050565b6124b1806200050b6000396000f3fe6080604052600436106100e45760003560e01c806301ffc9a7146100e957806306fdde031461011f57806326019c18146101415780632f745c591461015f5780633ec0b0bc1461017f57806343945512146101ae57806343c7db9a146101e65780634f6ccce7146101f95780636352211e146102175780636b4ed21b1461024457806370a0823114610259578063715018a61461028f578063776fafac146102a65780638da5cb5b146102d657806395d89b41146102eb5780639b24b3b014610300578063c87b56dd14610320578063f2fde38b14610340578063f577a50014610360575b600080fd5b3480156100f557600080fd5b50610109610104366004611c51565b610380565b6040516101169190611c84565b60405180910390f35b34801561012b57600080fd5b506101346103ed565b6040516101169190611d00565b34801561014d57600080fd5b506006545b6040516101169190611d17565b34801561016b57600080fd5b5061015261017a366004611d5b565b61047f565b34801561018b57600080fd5b5061019f61019a366004611d98565b6104e6565b60405161011693929190611e28565b3480156101ba57600080fd5b506101096101c9366004611e61565b6001600160a01b0316600090815260036020526040902054151590565b6101526101f4366004611eee565b610c2a565b34801561020557600080fd5b50610152610214366004611d98565b90565b34801561022357600080fd5b50610237610232366004611d98565b610e2a565b6040516101169190611fda565b34801561025057600080fd5b50600754610152565b34801561026557600080fd5b50610152610274366004611e61565b6001600160a01b031660009081526001602052604090205490565b34801561029b57600080fd5b506102a4610e48565b005b3480156102b257600080fd5b506102c66102c1366004611d98565b610e5c565b6040516101169493929190611fe8565b3480156102e257600080fd5b50610237611602565b3480156102f757600080fd5b50610134611611565b34801561030c57600080fd5b5061013461031b366004611d98565b611620565b34801561032c57600080fd5b5061013461033b366004611d98565b6116c2565b34801561034c57600080fd5b506102a461035b366004611e61565b611739565b34801561036c57600080fd5b5061010961037b366004611d98565b611773565b60006001600160e01b0319821663a511533d60e01b14806103b157506001600160e01b03198216635b5e139f60e01b145b806103cc57506001600160e01b03198216632d57debd60e01b145b806103e757506301ffc9a760e01b6001600160e01b03198316145b92915050565b6060600480546103fc90612055565b80601f016020809104026020016040519081016040528092919081815260200182805461042890612055565b80156104755780601f1061044a57610100808354040283529160200191610475565b820191906000526020600020905b81548152906001019060200180831161045857829003601f168201915b5050505050905090565b6001600160a01b0382166000908152600160205260408120805483106104c05760405162461bcd60e51b81526004016104b7906120aa565b60405180910390fd5b8083815481106104d2576104d26120ba565b906000526020600020015491505092915050565b6104ee611b6e565b6104f6611b6e565b6104fe611b6e565b6000848152600a602052604090819020815160808101909252600181018054909260058301926009019184908290829061053790612055565b80601f016020809104026020016040519081016040528092919081815260200182805461056390612055565b80156105b05780601f10610585576101008083540402835291602001916105b0565b820191906000526020600020905b81548152906001019060200180831161059357829003601f168201915b505050505081526020016001820180546105c990612055565b80601f01602080910402602001604051908101604052809291908181526020018280546105f590612055565b80156106425780601f1061061757610100808354040283529160200191610642565b820191906000526020600020905b81548152906001019060200180831161062557829003601f168201915b5050505050815260200160028201805461065b90612055565b80601f016020809104026020016040519081016040528092919081815260200182805461068790612055565b80156106d45780601f106106a9576101008083540402835291602001916106d4565b820191906000526020600020905b8154815290600101906020018083116106b757829003601f168201915b505050505081526020016003820180546106ed90612055565b80601f016020809104026020016040519081016040528092919081815260200182805461071990612055565b80156107665780601f1061073b57610100808354040283529160200191610766565b820191906000526020600020905b81548152906001019060200180831161074957829003601f168201915b50505050508152505092508160405180608001604052908160008201805461078d90612055565b80601f01602080910402602001604051908101604052809291908181526020018280546107b990612055565b80156108065780601f106107db57610100808354040283529160200191610806565b820191906000526020600020905b8154815290600101906020018083116107e957829003601f168201915b5050505050815260200160018201805461081f90612055565b80601f016020809104026020016040519081016040528092919081815260200182805461084b90612055565b80156108985780601f1061086d57610100808354040283529160200191610898565b820191906000526020600020905b81548152906001019060200180831161087b57829003601f168201915b505050505081526020016002820180546108b190612055565b80601f01602080910402602001604051908101604052809291908181526020018280546108dd90612055565b801561092a5780601f106108ff5761010080835404028352916020019161092a565b820191906000526020600020905b81548152906001019060200180831161090d57829003601f168201915b5050505050815260200160038201805461094390612055565b80601f016020809104026020016040519081016040528092919081815260200182805461096f90612055565b80156109bc5780601f10610991576101008083540402835291602001916109bc565b820191906000526020600020905b81548152906001019060200180831161099f57829003601f168201915b5050505050815250509150806040518060800160405290816000820180546109e390612055565b80601f0160208091040260200160405190810160405280929190818152602001828054610a0f90612055565b8015610a5c5780601f10610a3157610100808354040283529160200191610a5c565b820191906000526020600020905b815481529060010190602001808311610a3f57829003601f168201915b50505050508152602001600182018054610a7590612055565b80601f0160208091040260200160405190810160405280929190818152602001828054610aa190612055565b8015610aee5780601f10610ac357610100808354040283529160200191610aee565b820191906000526020600020905b815481529060010190602001808311610ad157829003601f168201915b50505050508152602001600282018054610b0790612055565b80601f0160208091040260200160405190810160405280929190818152602001828054610b3390612055565b8015610b805780601f10610b5557610100808354040283529160200191610b80565b820191906000526020600020905b815481529060010190602001808311610b6357829003601f168201915b50505050508152602001600382018054610b9990612055565b80601f0160208091040260200160405190810160405280929190818152602001828054610bc590612055565b8015610c125780601f10610be757610100808354040283529160200191610c12565b820191906000526020600020905b815481529060010190602001808311610bf557829003601f168201915b50505050508152505090509250925092509193909250565b600080610c3688611792565b6040805160a06020601f8b018190040282018101909252608081018981529293509182918a908a9081908501838280828437600092019190915250505090825250602001610c83876122a4565b8152602001610c91866122a4565b8152602001610c9f856122a4565b90526000828152600a60209081526040909120825180519192610cc792849290910190611b96565b506020828101518051805191926001850192610ce69284920190611b96565b506020828101518051610cff9260018501920190611b96565b5060408201518051610d1b916002840191602090910190611b96565b5060608201518051610d37916003840191602090910190611b96565b5050506040820151805180516005840191610d5791839160200190611b96565b506020828101518051610d709260018501920190611b96565b5060408201518051610d8c916002840191602090910190611b96565b5060608201518051610da8916003840191602090910190611b96565b5050506060820151805180516009840191610dc891839160200190611b96565b506020828101518051610de19260018501920190611b96565b5060408201518051610dfd916002840191602090910190611b96565b5060608201518051610e19916003840191602090910190611b96565b50939b9a5050505050505050505050565b6000610e35826117f8565b600101546001600160a01b031692915050565b610e50611830565b610e5a600061185f565b565b600a60205260009081526040902080548190610e7790612055565b80601f0160208091040260200160405190810160405280929190818152602001828054610ea390612055565b8015610ef05780601f10610ec557610100808354040283529160200191610ef0565b820191906000526020600020905b815481529060010190602001808311610ed357829003601f168201915b50505050509080600101604051806080016040529081600082018054610f1590612055565b80601f0160208091040260200160405190810160405280929190818152602001828054610f4190612055565b8015610f8e5780601f10610f6357610100808354040283529160200191610f8e565b820191906000526020600020905b815481529060010190602001808311610f7157829003601f168201915b50505050508152602001600182018054610fa790612055565b80601f0160208091040260200160405190810160405280929190818152602001828054610fd390612055565b80156110205780601f10610ff557610100808354040283529160200191611020565b820191906000526020600020905b81548152906001019060200180831161100357829003601f168201915b5050505050815260200160028201805461103990612055565b80601f016020809104026020016040519081016040528092919081815260200182805461106590612055565b80156110b25780601f10611087576101008083540402835291602001916110b2565b820191906000526020600020905b81548152906001019060200180831161109557829003601f168201915b505050505081526020016003820180546110cb90612055565b80601f01602080910402602001604051908101604052809291908181526020018280546110f790612055565b80156111445780601f1061111957610100808354040283529160200191611144565b820191906000526020600020905b81548152906001019060200180831161112757829003601f168201915b505050505081525050908060050160405180608001604052908160008201805461116d90612055565b80601f016020809104026020016040519081016040528092919081815260200182805461119990612055565b80156111e65780601f106111bb576101008083540402835291602001916111e6565b820191906000526020600020905b8154815290600101906020018083116111c957829003601f168201915b505050505081526020016001820180546111ff90612055565b80601f016020809104026020016040519081016040528092919081815260200182805461122b90612055565b80156112785780601f1061124d57610100808354040283529160200191611278565b820191906000526020600020905b81548152906001019060200180831161125b57829003601f168201915b5050505050815260200160028201805461129190612055565b80601f01602080910402602001604051908101604052809291908181526020018280546112bd90612055565b801561130a5780601f106112df5761010080835404028352916020019161130a565b820191906000526020600020905b8154815290600101906020018083116112ed57829003601f168201915b5050505050815260200160038201805461132390612055565b80601f016020809104026020016040519081016040528092919081815260200182805461134f90612055565b801561139c5780601f106113715761010080835404028352916020019161139c565b820191906000526020600020905b81548152906001019060200180831161137f57829003601f168201915b50505050508152505090806009016040518060800160405290816000820180546113c590612055565b80601f01602080910402602001604051908101604052809291908181526020018280546113f190612055565b801561143e5780601f106114135761010080835404028352916020019161143e565b820191906000526020600020905b81548152906001019060200180831161142157829003601f168201915b5050505050815260200160018201805461145790612055565b80601f016020809104026020016040519081016040528092919081815260200182805461148390612055565b80156114d05780601f106114a5576101008083540402835291602001916114d0565b820191906000526020600020905b8154815290600101906020018083116114b357829003601f168201915b505050505081526020016002820180546114e990612055565b80601f016020809104026020016040519081016040528092919081815260200182805461151590612055565b80156115625780601f1061153757610100808354040283529160200191611562565b820191906000526020600020905b81548152906001019060200180831161154557829003601f168201915b5050505050815260200160038201805461157b90612055565b80601f01602080910402602001604051908101604052809291908181526020018280546115a790612055565b80156115f45780601f106115c9576101008083540402835291602001916115f4565b820191906000526020600020905b8154815290600101906020018083116115d757829003601f168201915b505050505081525050905084565b6009546001600160a01b031690565b6060600580546103fc90612055565b6000818152600a6020526040902080546060919061163d90612055565b80601f016020809104026020016040519081016040528092919081815260200182805461166990612055565b80156116b65780601f1061168b576101008083540402835291602001916116b6565b820191906000526020600020905b81548152906001019060200180831161169957829003601f168201915b50505050509050919050565b60606116cd826117f8565b5060006116e560408051602081019091526000815290565b80519091501561172357806116fb8460206118b1565b60405160200161170c9291906122d2565b604051602081830303815290604052915050919050565b5050604080516020810190915260008152919050565b611741611830565b6001600160a01b0381166117675760405162461bcd60e51b81526004016104b7906122ea565b6117708161185f565b50565b600061177e826117f8565b60010154600160a01b900460ff1692915050565b6006546117a182826001611a23565b7f30385c845b448a36257a6a1716e6ad2e1bc2cbe333cde1e69fe849ad6511adfe82826040516117d2929190612334565b60405180910390a16001600660008282546117ed9190612365565b909155509092915050565b600081815260208190526040812060018101546001600160a01b03166103e75760405162461bcd60e51b81526004016104b7906120aa565b33611839611602565b6001600160a01b031614610e5a5760405162461bcd60e51b81526004016104b7906123af565b600980546001600160a01b038381166001600160a01b0319831681179093556040519116919082907f8be0079c531659141344cd1fd0a4f28419497f9722a3daafe3b4186f6b6457e090600090a35050565b606060006118c08360026123bf565b6118cb906002612365565b6001600160401b038111156118e2576118e26120d0565b6040519080825280601f01601f19166020018201604052801561190c576020820181803683370190505b509050600360fc1b81600081518110611927576119276120ba565b60200101906001600160f81b031916908160001a905350600f60fb1b81600181518110611956576119566120ba565b60200101906001600160f81b031916908160001a905350600061197a8460026123bf565b611985906001612365565b90505b60018111156119fd576f181899199a1a9b1b9c1cb0b131b232b360811b85600f16601081106119b9576119b96120ba565b1a60f81b8282815181106119cf576119cf6120ba565b60200101906001600160f81b031916908160001a90535060049490941c936119f6816123de565b9050611988565b508315611a1c5760405162461bcd60e51b81526004016104b790612427565b9392505050565b6000828152602081905260409020600101546001600160a01b031615611a5b5760405162461bcd60e51b81526004016104b79061246b565b6001600160a01b038316600090815260016020526040902054611a9157600160076000828254611a8b9190612365565b90915550505b604080516060810182523381526001600160a01b0385811660208084018281528615801586880190815260008a8152808552888120975188549088166001600160a01b031990911617885592516001978801805492511515600160a01b026001600160a81b03199093169190971617179094559182528381528482208054600283528684208985528352958320869055848252938501845592815291909120909101839055611b69576001600160a01b0383166000908152600360205260408120805460019290611b63908490612365565b90915550505b505050565b6040518060800160405280606081526020016060815260200160608152602001606081525090565b828054611ba290612055565b90600052602060002090601f016020900481019282611bc45760008555611c0a565b82601f10611bdd57805160ff1916838001178555611c0a565b82800160010185558215611c0a579182015b82811115611c0a578251825591602001919060010190611bef565b50611c16929150611c1a565b5090565b5b80821115611c165760008155600101611c1b565b6001600160e01b031981165b811461177057600080fd5b80356103e781611c2f565b600060208284031215611c6657611c66600080fd5b6000611c728484611c46565b949350505050565b8015155b82525050565b602081016103e78284611c7a565b60005b83811015611cad578181015183820152602001611c95565b83811115611cbc576000848401525b50505050565b601f01601f191690565b6000611cd6825190565b808452602084019350611ced818560208601611c92565b611cf681611cc2565b9093019392505050565b60208082528101611a1c8184611ccc565b80611c7e565b602081016103e78284611d11565b60006001600160a01b0382166103e7565b611c3b81611d25565b80356103e781611d36565b80611c3b565b80356103e781611d4a565b60008060408385031215611d7157611d71600080fd5b6000611d7d8585611d3f565b9250506020611d8e85828601611d50565b9150509250929050565b600060208284031215611dad57611dad600080fd5b6000611c728484611d50565b8051608080845260009190840190611dd18282611ccc565b91505060208301518482036020860152611deb8282611ccc565b91505060408301518482036040860152611e058282611ccc565b91505060608301518482036060860152611e1f8282611ccc565b95945050505050565b60608082528101611e398186611db9565b90508181036020830152611e4d8185611db9565b90508181036040830152611e1f8184611db9565b600060208284031215611e7657611e76600080fd5b6000611c728484611d3f565b60008083601f840112611e9757611e97600080fd5b5081356001600160401b03811115611eb157611eb1600080fd5b602083019150836001820283011115611ecc57611ecc600080fd5b9250929050565b600060808284031215611ee857611ee8600080fd5b50919050565b60008060008060008060a08789031215611f0a57611f0a600080fd5b6000611f168989611d3f565b96505060208701356001600160401b03811115611f3557611f35600080fd5b611f4189828a01611e82565b955095505060408701356001600160401b03811115611f6257611f62600080fd5b611f6e89828a01611ed3565b93505060608701356001600160401b03811115611f8d57611f8d600080fd5b611f9989828a01611ed3565b92505060808701356001600160401b03811115611fb857611fb8600080fd5b611fc489828a01611ed3565b9150509295509295509295565b611c7e81611d25565b602081016103e78284611fd1565b60808082528101611ff98187611ccc565b9050818103602083015261200d8186611db9565b905081810360408301526120218185611db9565b905081810360608301526120358184611db9565b9695505050505050565b634e487b7160e01b600052602260045260246000fd5b60028104600182168061206957607f821691505b60208210811415611ee857611ee861203f565b6014815260006020820173151bdad95b88191bd95cc81b9bdd08195e1a5cdd60621b815291505b5060200190565b602080825281016103e78161207c565b634e487b7160e01b600052603260045260246000fd5b634e487b7160e01b600052604160045260246000fd5b6120ef82611cc2565b81018181106001600160401b038211171561210c5761210c6120d0565b6040525050565b600061211e60405190565b905061212a82826120e6565b919050565b60006001600160401b03821115612148576121486120d0565b61215182611cc2565b60200192915050565b82818337506000910152565b60006121796121748461212f565b612113565b90508281526020810184848401111561219457612194600080fd5b61219f84828561215a565b509392505050565b600082601f8301126121bb576121bb600080fd5b8135611c72848260208601612166565b6000608082840312156121e0576121e0600080fd5b6121ea6080612113565b905081356001600160401b0381111561220557612205600080fd5b612211848285016121a7565b82525060208201356001600160401b0381111561223057612230600080fd5b61223c848285016121a7565b60208301525060408201356001600160401b0381111561225e5761225e600080fd5b61226a848285016121a7565b60408301525060608201356001600160401b0381111561228c5761228c600080fd5b612298848285016121a7565b60608301525092915050565b60006103e736836121cb565b60006122ba825190565b6122c8818560208601611c92565b9290920192915050565b60006122de82856122b0565b9150611c7282846122b0565b602080825281016103e781602681527f4f776e61626c653a206e6577206f776e657220697320746865207a65726f206160208201526564647265737360d01b604082015260600190565b604081016123428285611fd1565b611a1c6020830184611d11565b634e487b7160e01b600052601160045260246000fd5b600082198211156123785761237861234f565b500190565b60208082527f4f776e61626c653a2063616c6c6572206973206e6f7420746865206f776e6572910190815260006120a3565b602080825281016103e78161237d565b60008160001904831182151516156123d9576123d961234f565b500290565b6000816123ed576123ed61234f565b506000190190565b60208082527f537472696e67733a20686578206c656e67746820696e73756666696369656e74910190815260006120a3565b602080825281016103e7816123f5565b601d81526000602082017f43616e6e6f74206d696e7420616e2061737369676e656420746f6b656e000000815291506120a3565b602080825281016103e78161243756fea2646970667358221220fd85196bb7be26612f8f096de1e7c20e3383b87b244a59da200fbf43f3b3faf164736f6c63430008080033",
  "devdoc": {
    "author": "Miquel A. Cabot",
    "details": "Inherits from the SSBT contract",
    "kind": "dev",
    "methods": {
      "balanceOf(address)": {
        "params": {
          "owner": "Address for whom to query the balance"
        },
        "returns": {
          "_0": "Number of tokens owned by `owner`"
        }
      },
      "constructor": {
        "details": "Creates a new ZKP SBT, inheriting from the SBT contract.",
        "params": {
          "admin": "Administrator of the smart contract",
          "name": "Name of the token",
          "symbol": "Symbol of the token"
        }
      },
      "emittedCount()": {
        "returns": {
          "_0": "emittedCount Number of tokens emitted"
        }
      },
      "hasValid(address)": {
        "params": {
          "owner": "Address for whom to check the ownership"
        },
        "returns": {
          "_0": "True if `owner` has a valid token, false otherwise"
        }
      },
      "holdersCount()": {
        "returns": {
          "_0": "holdersCount Number of token holders"
        }
      },
      "isValid(uint256)": {
        "params": {
          "tokenId": "Identifier of the token"
        },
        "returns": {
          "_0": "True if the token is valid, false otherwise"
        }
      },
      "mint(address,bytes,(bytes,bytes,bytes,bytes),(bytes,bytes,bytes,bytes),(bytes,bytes,bytes,bytes))": {
        "details": "The caller must have the MINTER role",
        "params": {
          "encryptedCreditScore": "Encrypted credit score",
          "encryptedIncome": "Encrypted income",
          "encryptedReportDate": "Encrypted report date",
          "root": "Root of the Merkle Tree's data without encryption, used to verify the data",
          "to": "The address to mint the SBT to"
        },
        "returns": {
          "_0": "The SBT ID of the newly minted SBT"
        }
      },
      "name()": {
        "returns": {
          "_0": "Descriptive name of the tokens in this contract"
        }
      },
      "owner()": {
        "details": "Returns the address of the current owner."
      },
      "ownerOf(uint256)": {
        "params": {
          "tokenId": "Identifier of the token"
        },
        "returns": {
          "_0": "Address of the owner of `tokenId`"
        }
      },
      "renounceOwnership()": {
        "details": "Leaves the contract without owner. It will not be possible to call `onlyOwner` functions anymore. Can only be called by the current owner. NOTE: Renouncing ownership will leave the contract without an owner, thereby removing any functionality that is only available to the owner."
      },
      "symbol()": {
        "returns": {
          "_0": "An abbreviated name of the tokens in this contract"
        }
      },
      "tokenByIndex(uint256)": {
        "params": {
          "index": "Index of the token"
        },
        "returns": {
          "_0": "tokenId of the token"
        }
      },
      "tokenOfOwnerByIndex(address,uint256)": {
        "params": {
          "index": "Index of the token",
          "owner": "Address for whom to get the token"
        },
        "returns": {
          "_0": "tokenId of the token"
        }
      },
      "tokenURI(uint256)": {
        "params": {
          "tokenId": "Identifier of the token"
        },
        "returns": {
          "_0": "URI for the token"
        }
      },
      "transferOwnership(address)": {
        "details": "Transfers ownership of the contract to a new account (`newOwner`). Can only be called by the current owner."
      }
    },
    "title": "ZKP SBT",
    "version": 1
  },
  "userdoc": {
    "events": {
      "Minted(address,uint256)": {
        "notice": "Event emitted when a token `tokenId` is minted for `owner`"
      },
      "Revoked(address,uint256)": {
        "notice": "Event emitted when token `tokenId` of `owner` is revoked"
      }
    },
    "kind": "user",
    "methods": {
      "balanceOf(address)": {
        "notice": "Count all tokens assigned to an owner"
      },
      "constructor": {
        "notice": "Creates a new ZKP SBT"
      },
      "hasValid(address)": {
        "notice": "Check if an address owns a valid token in the contract"
      },
      "isValid(uint256)": {
        "notice": "Check if a token hasn't been revoked"
      },
      "mint(address,bytes,(bytes,bytes,bytes,bytes),(bytes,bytes,bytes,bytes),(bytes,bytes,bytes,bytes))": {
        "notice": "Mints a new SBT"
      },
      "ownerOf(uint256)": {
        "notice": "Get owner of a token"
      },
      "tokenByIndex(uint256)": {
        "notice": "Get a tokenId by it's index, where 0 <= index < total()"
      },
      "tokenOfOwnerByIndex(address,uint256)": {
        "notice": "Get the tokenId of a token using its position in the owner's list"
      },
      "tokenURI(uint256)": {
        "notice": "URI to query to get the token's metadata"
      }
    },
    "notice": "Soulbound token implementing ZKP",
    "version": 1
  },
  "storageLayout": {
    "storage": [
      {
        "astId": 2089,
        "contract": "contracts/ZKSBT.sol:ZKSBT",
        "label": "_tokens",
        "offset": 0,
        "slot": "0",
        "type": "t_mapping(t_uint256,t_struct(Token)2084_storage)"
      },
      {
        "astId": 2094,
        "contract": "contracts/ZKSBT.sol:ZKSBT",
        "label": "_indexedTokenIds",
        "offset": 0,
        "slot": "1",
        "type": "t_mapping(t_address,t_array(t_uint256)dyn_storage)"
      },
      {
        "astId": 2100,
        "contract": "contracts/ZKSBT.sol:ZKSBT",
        "label": "_tokenIdIndex",
        "offset": 0,
        "slot": "2",
        "type": "t_mapping(t_address,t_mapping(t_uint256,t_uint256))"
      },
      {
        "astId": 2104,
        "contract": "contracts/ZKSBT.sol:ZKSBT",
        "label": "_numberOfValidTokens",
        "offset": 0,
        "slot": "3",
        "type": "t_mapping(t_address,t_uint256)"
      },
      {
        "astId": 2106,
        "contract": "contracts/ZKSBT.sol:ZKSBT",
        "label": "_name",
        "offset": 0,
        "slot": "4",
        "type": "t_string_storage"
      },
      {
        "astId": 2108,
        "contract": "contracts/ZKSBT.sol:ZKSBT",
        "label": "_symbol",
        "offset": 0,
        "slot": "5",
        "type": "t_string_storage"
      },
      {
        "astId": 2110,
        "contract": "contracts/ZKSBT.sol:ZKSBT",
        "label": "_emittedCount",
        "offset": 0,
        "slot": "6",
        "type": "t_uint256"
      },
      {
        "astId": 2112,
        "contract": "contracts/ZKSBT.sol:ZKSBT",
        "label": "_holdersCount",
        "offset": 0,
        "slot": "7",
        "type": "t_uint256"
      },
      {
        "astId": 2114,
        "contract": "contracts/ZKSBT.sol:ZKSBT",
        "label": "_creator",
        "offset": 0,
        "slot": "8",
        "type": "t_address"
      },
      {
        "astId": 7,
        "contract": "contracts/ZKSBT.sol:ZKSBT",
        "label": "_owner",
        "offset": 0,
        "slot": "9",
        "type": "t_address"
      },
      {
        "astId": 1959,
        "contract": "contracts/ZKSBT.sol:ZKSBT",
        "label": "sbtData",
        "offset": 0,
        "slot": "10",
        "type": "t_mapping(t_uint256,t_struct(SBTData)1954_storage)"
      }
    ],
    "types": {
      "t_address": {
        "encoding": "inplace",
        "label": "address",
        "numberOfBytes": "20"
      },
      "t_array(t_uint256)dyn_storage": {
        "base": "t_uint256",
        "encoding": "dynamic_array",
        "label": "uint256[]",
        "numberOfBytes": "32"
      },
      "t_bool": {
        "encoding": "inplace",
        "label": "bool",
        "numberOfBytes": "1"
      },
      "t_bytes_storage": {
        "encoding": "bytes",
        "label": "bytes",
        "numberOfBytes": "32"
      },
      "t_mapping(t_address,t_array(t_uint256)dyn_storage)": {
        "encoding": "mapping",
        "key": "t_address",
        "label": "mapping(address => uint256[])",
        "numberOfBytes": "32",
        "value": "t_array(t_uint256)dyn_storage"
      },
      "t_mapping(t_address,t_mapping(t_uint256,t_uint256))": {
        "encoding": "mapping",
        "key": "t_address",
        "label": "mapping(address => mapping(uint256 => uint256))",
        "numberOfBytes": "32",
        "value": "t_mapping(t_uint256,t_uint256)"
      },
      "t_mapping(t_address,t_uint256)": {
        "encoding": "mapping",
        "key": "t_address",
        "label": "mapping(address => uint256)",
        "numberOfBytes": "32",
        "value": "t_uint256"
      },
      "t_mapping(t_uint256,t_struct(SBTData)1954_storage)": {
        "encoding": "mapping",
        "key": "t_uint256",
        "label": "mapping(uint256 => struct ZKSBT.SBTData)",
        "numberOfBytes": "32",
        "value": "t_struct(SBTData)1954_storage"
      },
      "t_mapping(t_uint256,t_struct(Token)2084_storage)": {
        "encoding": "mapping",
        "key": "t_uint256",
        "label": "mapping(uint256 => struct ERC4671.Token)",
        "numberOfBytes": "32",
        "value": "t_struct(Token)2084_storage"
      },
      "t_mapping(t_uint256,t_uint256)": {
        "encoding": "mapping",
        "key": "t_uint256",
        "label": "mapping(uint256 => uint256)",
        "numberOfBytes": "32",
        "value": "t_uint256"
      },
      "t_string_storage": {
        "encoding": "bytes",
        "label": "string",
        "numberOfBytes": "32"
      },
      "t_struct(EncryptedData)1942_storage": {
        "encoding": "inplace",
        "label": "struct ZKSBT.EncryptedData",
        "members": [
          {
            "astId": 1935,
            "contract": "contracts/ZKSBT.sol:ZKSBT",
            "label": "iv",
            "offset": 0,
            "slot": "0",
            "type": "t_bytes_storage"
          },
          {
            "astId": 1937,
            "contract": "contracts/ZKSBT.sol:ZKSBT",
            "label": "ephemPublicKey",
            "offset": 0,
            "slot": "1",
            "type": "t_bytes_storage"
          },
          {
            "astId": 1939,
            "contract": "contracts/ZKSBT.sol:ZKSBT",
            "label": "ciphertext",
            "offset": 0,
            "slot": "2",
            "type": "t_bytes_storage"
          },
          {
            "astId": 1941,
            "contract": "contracts/ZKSBT.sol:ZKSBT",
            "label": "mac",
            "offset": 0,
            "slot": "3",
            "type": "t_bytes_storage"
          }
        ],
        "numberOfBytes": "128"
      },
      "t_struct(SBTData)1954_storage": {
        "encoding": "inplace",
        "label": "struct ZKSBT.SBTData",
        "members": [
          {
            "astId": 1944,
            "contract": "contracts/ZKSBT.sol:ZKSBT",
            "label": "root",
            "offset": 0,
            "slot": "0",
            "type": "t_bytes_storage"
          },
          {
            "astId": 1947,
            "contract": "contracts/ZKSBT.sol:ZKSBT",
            "label": "encryptedCreditScore",
            "offset": 0,
            "slot": "1",
            "type": "t_struct(EncryptedData)1942_storage"
          },
          {
            "astId": 1950,
            "contract": "contracts/ZKSBT.sol:ZKSBT",
            "label": "encryptedIncome",
            "offset": 0,
            "slot": "5",
            "type": "t_struct(EncryptedData)1942_storage"
          },
          {
            "astId": 1953,
            "contract": "contracts/ZKSBT.sol:ZKSBT",
            "label": "encryptedReportDate",
            "offset": 0,
            "slot": "9",
            "type": "t_struct(EncryptedData)1942_storage"
          }
        ],
        "numberOfBytes": "416"
      },
      "t_struct(Token)2084_storage": {
        "encoding": "inplace",
        "label": "struct ERC4671.Token",
        "members": [
          {
            "astId": 2079,
            "contract": "contracts/ZKSBT.sol:ZKSBT",
            "label": "issuer",
            "offset": 0,
            "slot": "0",
            "type": "t_address"
          },
          {
            "astId": 2081,
            "contract": "contracts/ZKSBT.sol:ZKSBT",
            "label": "owner",
            "offset": 0,
            "slot": "1",
            "type": "t_address"
          },
          {
            "astId": 2083,
            "contract": "contracts/ZKSBT.sol:ZKSBT",
            "label": "valid",
            "offset": 20,
            "slot": "1",
            "type": "t_bool"
          }
        ],
        "numberOfBytes": "64"
      },
      "t_uint256": {
        "encoding": "inplace",
        "label": "uint256",
        "numberOfBytes": "32"
      }
    }
  }
}